{
  "contractName": "School",
  "abi": [
    {
      "constant": true,
      "inputs": [
        {
          "internalType": "uint256",
          "name": "",
          "type": "uint256"
        }
      ],
      "name": "elections",
      "outputs": [
        {
          "internalType": "string",
          "name": "name",
          "type": "string"
        },
        {
          "internalType": "uint256",
          "name": "voteCount",
          "type": "uint256"
        }
      ],
      "payable": false,
      "stateMutability": "view",
      "type": "function"
    },
    {
      "constant": true,
      "inputs": [
        {
          "internalType": "address",
          "name": "",
          "type": "address"
        }
      ],
      "name": "schools",
      "outputs": [
        {
          "internalType": "string",
          "name": "name",
          "type": "string"
        },
        {
          "internalType": "address",
          "name": "principal",
          "type": "address"
        }
      ],
      "payable": false,
      "stateMutability": "view",
      "type": "function"
    },
    {
      "constant": false,
      "inputs": [
        {
          "internalType": "string",
          "name": "_name",
          "type": "string"
        }
      ],
      "name": "createSchool",
      "outputs": [],
      "payable": false,
      "stateMutability": "nonpayable",
      "type": "function"
    },
    {
      "constant": false,
      "inputs": [
        {
          "internalType": "uint256",
          "name": "_classId",
          "type": "uint256"
        },
        {
          "internalType": "string",
          "name": "_name",
          "type": "string"
        }
      ],
      "name": "createClass",
      "outputs": [],
      "payable": false,
      "stateMutability": "nonpayable",
      "type": "function"
    },
    {
      "constant": false,
      "inputs": [
        {
          "internalType": "uint256",
          "name": "_classId",
          "type": "uint256"
        },
        {
          "internalType": "string",
          "name": "_teacherName",
          "type": "string"
        },
        {
          "internalType": "uint256",
          "name": "_teacherId",
          "type": "uint256"
        }
      ],
      "name": "addTeacherToClass",
      "outputs": [],
      "payable": false,
      "stateMutability": "nonpayable",
      "type": "function"
    },
    {
      "constant": false,
      "inputs": [
        {
          "internalType": "uint256",
          "name": "_classId",
          "type": "uint256"
        },
        {
          "internalType": "string",
          "name": "_studentName",
          "type": "string"
        },
        {
          "internalType": "uint256",
          "name": "_studentId",
          "type": "uint256"
        },
        {
          "internalType": "string",
          "name": "_password",
          "type": "string"
        }
      ],
      "name": "addStudentToClass",
      "outputs": [],
      "payable": false,
      "stateMutability": "nonpayable",
      "type": "function"
    },
    {
      "constant": true,
      "inputs": [],
      "name": "getSchoolName",
      "outputs": [
        {
          "internalType": "string",
          "name": "",
          "type": "string"
        }
      ],
      "payable": false,
      "stateMutability": "view",
      "type": "function"
    },
    {
      "constant": true,
      "inputs": [
        {
          "internalType": "uint256",
          "name": "_classId",
          "type": "uint256"
        }
      ],
      "name": "getClassDetails",
      "outputs": [
        {
          "internalType": "string",
          "name": "",
          "type": "string"
        },
        {
          "internalType": "uint256",
          "name": "",
          "type": "uint256"
        },
        {
          "internalType": "uint256",
          "name": "",
          "type": "uint256"
        }
      ],
      "payable": false,
      "stateMutability": "view",
      "type": "function"
    },
    {
      "constant": true,
      "inputs": [
        {
          "internalType": "string",
          "name": "_studentName",
          "type": "string"
        },
        {
          "internalType": "string",
          "name": "_password",
          "type": "string"
        }
      ],
      "name": "log_in",
      "outputs": [
        {
          "internalType": "bool",
          "name": "",
          "type": "bool"
        }
      ],
      "payable": false,
      "stateMutability": "view",
      "type": "function"
    },
    {
      "constant": false,
      "inputs": [
        {
          "internalType": "string",
          "name": "electionName",
          "type": "string"
        },
        {
          "internalType": "string[]",
          "name": "electionOptions",
          "type": "string[]"
        }
      ],
      "name": "createElection",
      "outputs": [],
      "payable": false,
      "stateMutability": "nonpayable",
      "type": "function"
    },
    {
      "constant": true,
      "inputs": [
        {
          "internalType": "string",
          "name": "electionName",
          "type": "string"
        }
      ],
      "name": "getElection",
      "outputs": [
        {
          "internalType": "string",
          "name": "",
          "type": "string"
        },
        {
          "internalType": "string[]",
          "name": "",
          "type": "string[]"
        },
        {
          "internalType": "uint256",
          "name": "",
          "type": "uint256"
        }
      ],
      "payable": false,
      "stateMutability": "view",
      "type": "function"
    }
  ],
  "bytecode": "0x608060405234801561001057600080fd5b50611f1e806100206000396000f3fe608060405234801561001057600080fd5b50600436106100a95760003560e01c80636e002ce2116100715780636e002ce214610167578063727790fa14610197578063921c4c36146101c8578063e79be326146101e4578063edb8240a14610216578063f0dcb15c14610232576100a9565b80631beb119b146100ae578063349813b2146100ca5780634771b573146100e65780634fc555c3146101185780635e6fef0114610136575b600080fd5b6100c860048036036100c391908101906116db565b61024e565b005b6100e460048036036100df919081019061151f565b61042f565b005b61010060048036036100fb91908101906114de565b6104c3565b60405161010f93929190611b31565b60405180910390f35b61012061076a565b60405161012d9190611b0f565b60405180910390f35b610150600480360361014b91908101906115f7565b61084c565b60405161015e929190611be4565b60405180910390f35b610181600480360361017c919081019061158b565b610915565b60405161018e9190611af4565b60405180910390f35b6101b160048036036101ac91908101906114b5565b610aaa565b6040516101bf929190611bb4565b60405180910390f35b6101e260048036036101dd9190810190611620565b610b86565b005b6101fe60048036036101f991908101906115f7565b610ced565b60405161020d93929190611b76565b60405180910390f35b610230600480360361022b9190810190611674565b610e0d565b005b61024c600480360361024791908101906114de565b610fca565b005b6000600160003373ffffffffffffffffffffffffffffffffffffffff1673ffffffffffffffffffffffffffffffffffffffff1681526020019081526020016000209050600073ffffffffffffffffffffffffffffffffffffffff168160010160009054906101000a900473ffffffffffffffffffffffffffffffffffffffff1673ffffffffffffffffffffffffffffffffffffffff161415610325576040517f08c379a000000000000000000000000000000000000000000000000000000000815260040161031c90611cb4565b60405180910390fd5b60008160020160008781526020019081526020016000206001018054905011610383576040517f08c379a000000000000000000000000000000000000000000000000000000000815260040161037a90611c34565b60405180910390fd5b8060020160008681526020019081526020016000206002016040518060600160405280868152602001848152602001858152509080600181540180825580915050906001820390600052602060002090600302016000909192909190915060008201518160000190805190602001906103fd929190611176565b50602082015181600101908051906020019061041a929190611176565b50604082015181600201555050505050505050565b600060405180606001604052808481526020018381526020016000815250908060018154018082558091505090600182039060005260206000209060030201600090919290919091506000820151816000019080519060200190610494929190611176565b5060208201518160010190805190602001906104b19291906111f6565b50604082015181600201555050505050565b606080600080600090505b600080549050811015610727578480519060200120600082815481106104f057fe5b906000526020600020906003020160000160405161050e9190611add565b6040518091039020141561071a576000805490508110610563576040517f08c379a000000000000000000000000000000000000000000000000000000000815260040161055a90611c14565b60405180910390fd5b600080828154811061057157fe5b9060005260206000209060030201905080600001816001018260020154828054600181600116156101000203166002900480601f0160208091040260200160405190810160405280929190818152602001828054600181600116156101000203166002900480156106235780601f106105f857610100808354040283529160200191610623565b820191906000526020600020905b81548152906001019060200180831161060657829003601f168201915b5050505050925081805480602002602001604051908101604052809291908181526020016000905b82821015610707578382906000526020600020018054600181600116156101000203166002900480601f0160208091040260200160405190810160405280929190818152602001828054600181600116156101000203166002900480156106f35780601f106106c8576101008083540402835291602001916106f3565b820191906000526020600020905b8154815290600101906020018083116106d657829003601f168201915b50505050508152602001906001019061064b565b5050505091509450945094505050610763565b80806001019150506104ce565b506040517f08c379a000000000000000000000000000000000000000000000000000000000815260040161075a90611c94565b60405180910390fd5b9193909250565b6060600160003373ffffffffffffffffffffffffffffffffffffffff1673ffffffffffffffffffffffffffffffffffffffff1681526020019081526020016000206000018054600181600116156101000203166002900480601f0160208091040260200160405190810160405280929190818152602001828054600181600116156101000203166002900480156108425780601f1061081757610100808354040283529160200191610842565b820191906000526020600020905b81548152906001019060200180831161082557829003601f168201915b5050505050905090565b6000818154811061085957fe5b9060005260206000209060030201600091509050806000018054600181600116156101000203166002900480601f0160208091040260200160405190810160405280929190818152602001828054600181600116156101000203166002900480156109055780601f106108da57610100808354040283529160200191610905565b820191906000526020600020905b8154815290600101906020018083116108e857829003601f168201915b5050505050908060020154905082565b600080600160003373ffffffffffffffffffffffffffffffffffffffff1673ffffffffffffffffffffffffffffffffffffffff1681526020019081526020016000209050600080905060008090505b620f42408110156109b25760008360020160008381526020019081526020016000206001018054905011156109a05781806001019250506109a5565b6109b2565b8080600101915050610964565b5060008090505b81811015610a9c576000836002016000838152602001908152602001600020600201905060008090505b8180549050811015610a8d578780519060200120828281548110610a0357fe5b9060005260206000209060030201600001604051610a219190611add565b6040518091039020148015610a6d57508680519060200120828281548110610a4557fe5b9060005260206000209060030201600101604051610a639190611add565b6040518091039020145b15610a8057600195505050505050610aa4565b80806001019150506109e3565b505080806001019150506109b9565b506000925050505b92915050565b6001602052806000526040600020600091509050806000018054600181600116156101000203166002900480601f016020809104026020016040519081016040528092919081815260200182805460018160011615610100020316600290048015610b565780601f10610b2b57610100808354040283529160200191610b56565b820191906000526020600020905b815481529060010190602001808311610b3957829003601f168201915b5050505050908060010160009054906101000a900473ffffffffffffffffffffffffffffffffffffffff16905082565b6000600160003373ffffffffffffffffffffffffffffffffffffffff1673ffffffffffffffffffffffffffffffffffffffff1681526020019081526020016000209050600073ffffffffffffffffffffffffffffffffffffffff168160010160009054906101000a900473ffffffffffffffffffffffffffffffffffffffff1673ffffffffffffffffffffffffffffffffffffffff161415610c5d576040517f08c379a0000000000000000000000000000000000000000000000000000000008152600401610c5490611cb4565b60405180910390fd5b60008160020160008581526020019081526020016000206001018054905014610cbb576040517f08c379a0000000000000000000000000000000000000000000000000000000008152600401610cb290611c74565b60405180910390fd5b818160020160008581526020019081526020016000206000019080519060200190610ce7929190611256565b50505050565b60606000806000600160003373ffffffffffffffffffffffffffffffffffffffff1673ffffffffffffffffffffffffffffffffffffffff1681526020019081526020016000209050600081600201600087815260200190815260200160002090508060000181600101805490508260020180549050828054600181600116156101000203166002900480601f016020809104026020016040519081016040528092919081815260200182805460018160011615610100020316600290048015610df75780601f10610dcc57610100808354040283529160200191610df7565b820191906000526020600020905b815481529060010190602001808311610dda57829003601f168201915b5050505050925094509450945050509193909250565b6000600160003373ffffffffffffffffffffffffffffffffffffffff1673ffffffffffffffffffffffffffffffffffffffff1681526020019081526020016000209050600073ffffffffffffffffffffffffffffffffffffffff168160010160009054906101000a900473ffffffffffffffffffffffffffffffffffffffff1673ffffffffffffffffffffffffffffffffffffffff161415610ee4576040517f08c379a0000000000000000000000000000000000000000000000000000000008152600401610edb90611cb4565b60405180910390fd5b60008160020160008681526020019081526020016000206001018054905011610f42576040517f08c379a0000000000000000000000000000000000000000000000000000000008152600401610f3990611c34565b60405180910390fd5b806002016000858152602001908152602001600020600101604051806040016040528085815260200184815250908060018154018082558091505090600182039060005260206000209060020201600090919290919091506000820151816000019080519060200190610fb6929190611176565b506020820151816001015550505050505050565b600073ffffffffffffffffffffffffffffffffffffffff16600160003373ffffffffffffffffffffffffffffffffffffffff1673ffffffffffffffffffffffffffffffffffffffff16815260200190815260200160002060010160009054906101000a900473ffffffffffffffffffffffffffffffffffffffff1673ffffffffffffffffffffffffffffffffffffffff161461109b576040517f08c379a000000000000000000000000000000000000000000000000000000000815260040161109290611c54565b60405180910390fd5b80600160003373ffffffffffffffffffffffffffffffffffffffff1673ffffffffffffffffffffffffffffffffffffffff16815260200190815260200160002060000190805190602001906110f1929190611256565b5033600160003373ffffffffffffffffffffffffffffffffffffffff1673ffffffffffffffffffffffffffffffffffffffff16815260200190815260200160002060010160006101000a81548173ffffffffffffffffffffffffffffffffffffffff021916908373ffffffffffffffffffffffffffffffffffffffff16021790555050565b828054600181600116156101000203166002900490600052602060002090601f016020900481019282601f106111b757805160ff19168380011785556111e5565b828001600101855582156111e5579182015b828111156111e45782518255916020019190600101906111c9565b5b5090506111f291906112d6565b5090565b828054828255906000526020600020908101928215611245579160200282015b82811115611244578251829080519060200190611234929190611176565b5091602001919060010190611216565b5b50905061125291906112fb565b5090565b828054600181600116156101000203166002900490600052602060002090601f016020900481019282601f1061129757805160ff19168380011785556112c5565b828001600101855582156112c5579182015b828111156112c45782518255916020019190600101906112a9565b5b5090506112d291906112d6565b5090565b6112f891905b808211156112f45760008160009055506001016112dc565b5090565b90565b61132491905b8082111561132057600081816113179190611327565b50600101611301565b5090565b90565b50805460018160011615610100020316600290046000825580601f1061134d575061136c565b601f01602090049060005260206000209081019061136b91906112d6565b5b50565b60008135905061137e81611ead565b92915050565b600082601f83011261139557600080fd5b81356113a86113a382611d01565b611cd4565b9150818183526020840193506020810190508360005b838110156113ee57813586016113d488826113f8565b8452602084019350602083019250506001810190506113be565b5050505092915050565b600082601f83011261140957600080fd5b813561141c61141782611d29565b611cd4565b9150808252602083016020830185838301111561143857600080fd5b611443838284611e5a565b50505092915050565b600082601f83011261145d57600080fd5b813561147061146b82611d55565b611cd4565b9150808252602083016020830185838301111561148c57600080fd5b611497838284611e5a565b50505092915050565b6000813590506114af81611ec4565b92915050565b6000602082840312156114c757600080fd5b60006114d58482850161136f565b91505092915050565b6000602082840312156114f057600080fd5b600082013567ffffffffffffffff81111561150a57600080fd5b6115168482850161144c565b91505092915050565b6000806040838503121561153257600080fd5b600083013567ffffffffffffffff81111561154c57600080fd5b6115588582860161144c565b925050602083013567ffffffffffffffff81111561157557600080fd5b61158185828601611384565b9150509250929050565b6000806040838503121561159e57600080fd5b600083013567ffffffffffffffff8111156115b857600080fd5b6115c48582860161144c565b925050602083013567ffffffffffffffff8111156115e157600080fd5b6115ed8582860161144c565b9150509250929050565b60006020828403121561160957600080fd5b6000611617848285016114a0565b91505092915050565b6000806040838503121561163357600080fd5b6000611641858286016114a0565b925050602083013567ffffffffffffffff81111561165e57600080fd5b61166a8582860161144c565b9150509250929050565b60008060006060848603121561168957600080fd5b6000611697868287016114a0565b935050602084013567ffffffffffffffff8111156116b457600080fd5b6116c08682870161144c565b92505060406116d1868287016114a0565b9150509250925092565b600080600080608085870312156116f157600080fd5b60006116ff878288016114a0565b945050602085013567ffffffffffffffff81111561171c57600080fd5b6117288782880161144c565b9350506040611739878288016114a0565b925050606085013567ffffffffffffffff81111561175657600080fd5b6117628782880161144c565b91505092959194509250565b600061177a83836118dc565b905092915050565b61178b81611e12565b82525050565b600061179c82611da6565b6117a68185611dd4565b9350836020820285016117b885611d81565b8060005b858110156117f457848403895281516117d5858261176e565b94506117e083611dc7565b925060208a019950506001810190506117bc565b50829750879550505050505092915050565b61180f81611e24565b82525050565b60008154600181166000811461183257600181146118575761189b565b607f60028304166118438187611de5565b955060ff198316865280860193505061189b565b600282046118658187611de5565b955061187085611d91565b60005b8281101561189257815481890152600182019150602081019050611873565b82880195505050505b505092915050565b60006118ae82611dbc565b6118b88185611e01565b93506118c8818560208601611e69565b6118d181611e9c565b840191505092915050565b60006118e782611db1565b6118f18185611df0565b9350611901818560208601611e69565b61190a81611e9c565b840191505092915050565b600061192082611db1565b61192a8185611e01565b935061193a818560208601611e69565b61194381611e9c565b840191505092915050565b600061195b600d83611e01565b91507f496e76616c696420696e646578000000000000000000000000000000000000006000830152602082019050919050565b600061199b601483611e01565b91507f436c61737320646f6573206e6f742065786973740000000000000000000000006000830152602082019050919050565b60006119db601583611e01565b91507f5363686f6f6c20616c72656164792065786973747300000000000000000000006000830152602082019050919050565b6000611a1b601483611e01565b91507f436c61737320616c7265616479206578697374730000000000000000000000006000830152602082019050919050565b6000611a5b601283611e01565b91507f456c656374696f6e206e6f7420666f756e6400000000000000000000000000006000830152602082019050919050565b6000611a9b601583611e01565b91507f5363686f6f6c20646f6573206e6f7420657869737400000000000000000000006000830152602082019050919050565b611ad781611e50565b82525050565b6000611ae98284611815565b915081905092915050565b6000602082019050611b096000830184611806565b92915050565b60006020820190508181036000830152611b2981846118a3565b905092915050565b60006060820190508181036000830152611b4b81866118a3565b90508181036020830152611b5f8185611791565b9050611b6e6040830184611ace565b949350505050565b60006060820190508181036000830152611b9081866118a3565b9050611b9f6020830185611ace565b611bac6040830184611ace565b949350505050565b60006040820190508181036000830152611bce8185611915565b9050611bdd6020830184611782565b9392505050565b60006040820190508181036000830152611bfe8185611915565b9050611c0d6020830184611ace565b9392505050565b60006020820190508181036000830152611c2d8161194e565b9050919050565b60006020820190508181036000830152611c4d8161198e565b9050919050565b60006020820190508181036000830152611c6d816119ce565b9050919050565b60006020820190508181036000830152611c8d81611a0e565b9050919050565b60006020820190508181036000830152611cad81611a4e565b9050919050565b60006020820190508181036000830152611ccd81611a8e565b9050919050565b6000604051905081810181811067ffffffffffffffff82111715611cf757600080fd5b8060405250919050565b600067ffffffffffffffff821115611d1857600080fd5b602082029050602081019050919050565b600067ffffffffffffffff821115611d4057600080fd5b601f19601f8301169050602081019050919050565b600067ffffffffffffffff821115611d6c57600080fd5b601f19601f8301169050602081019050919050565b6000819050602082019050919050565b60008190508160005260206000209050919050565b600081519050919050565b600081519050919050565b600081519050919050565b6000602082019050919050565b600082825260208201905092915050565b600081905092915050565b600082825260208201905092915050565b600082825260208201905092915050565b6000611e1d82611e30565b9050919050565b60008115159050919050565b600073ffffffffffffffffffffffffffffffffffffffff82169050919050565b6000819050919050565b82818337600083830152505050565b60005b83811015611e87578082015181840152602081019050611e6c565b83811115611e96576000848401525b50505050565b6000601f19601f8301169050919050565b611eb681611e12565b8114611ec157600080fd5b50565b611ecd81611e50565b8114611ed857600080fd5b5056fea365627a7a72315820acc1b72e7367bbb6be7716e8270adbfee4cf846b2f54fceaac0e01841a594aa46c6578706572696d656e74616cf564736f6c63430005100040",
  "source": "pragma solidity ^0.5.16;\npragma experimental ABIEncoderV2;\n\ncontract School {\n\n    struct Teacher {\n        string name;\n        uint256 id;\n    }\n\n    struct Student {\n        string name;\n        string password;\n        uint256 id;\n    }\n\n    struct Class {\n        string name;\n        Teacher[] teachers;\n        Student[] students;\n    }\n\n    struct SchoolData {\n        string name;\n        address principal;\n        mapping(uint256 => Class) classes;\n    }\n\n    struct Election {\n        string name;\n        string[] options;\n        uint voteCount;\n    }\n\n    Election[] public elections;\n\n    mapping(address => SchoolData) public schools;  // Mapping to store school data (Principal is owner)\n\n    function createSchool(string memory _name) public {\n        require(schools[msg.sender].principal == address(0), \"School already exists\");\n        // Check if school already exists\n        schools[msg.sender].name = _name;\n        // Set the school's name\n        schools[msg.sender].principal = msg.sender;\n        // Set the caller's address as the principal\n    }\n\n    function createClass(uint256 _classId, string memory _name) public {\n        SchoolData storage school = schools[msg.sender];\n        require(school.principal != address(0), \"School does not exist\");\n        // Check if the school exists\n        require(school.classes[_classId].teachers.length == 0, \"Class already exists\");\n        // Check if class already exists\n        school.classes[_classId].name = _name;\n        // Set the class name\n    }\n\n    function addTeacherToClass(uint256 _classId, string memory _teacherName, uint256 _teacherId) public {\n        SchoolData storage school = schools[msg.sender];\n        require(school.principal != address(0), \"School does not exist\");\n        // Check if the school exists\n        require(school.classes[_classId].teachers.length > 0, \"Class does not exist\");\n        // Check if class exists\n        school.classes[_classId].teachers.push(Teacher(_teacherName, _teacherId));\n        // Add teacher to the class\n    }\n\n    function addStudentToClass(uint256 _classId, string memory _studentName, uint256 _studentId, string memory _password) public {\n        SchoolData storage school = schools[msg.sender];\n        require(school.principal != address(0), \"School does not exist\");\n        // Check if the school exists\n        require(school.classes[_classId].teachers.length > 0, \"Class does not exist\");\n        // Check if class exists\n        school.classes[_classId].students.push(Student(_studentName, _password, _studentId));\n        // Add student to the class\n    }\n\n    function getSchoolName() public view returns (string memory) {\n        return schools[msg.sender].name;\n        // Get the name of the school\n    }\n\n    function getClassDetails(uint256 _classId) public view returns (string memory, uint256, uint256) {\n        SchoolData storage school = schools[msg.sender];\n        Class storage class = school.classes[_classId];\n        return (class.name, class.teachers.length, class.students.length);\n        // Get the class details (name, number of teachers, number of students)\n    }\n\n    function log_in(string memory _studentName, string memory _password) public view returns (bool) {\n        SchoolData storage school = schools[msg.sender];\n        uint256 classCount = 0;\n        for (uint256 i = 0; i < 1000000; i++) {// Assuming the maximum number of classes is 1,000,000\n            if (school.classes[i].teachers.length > 0) {\n                classCount++;\n            } else {\n                break;\n            }\n        }\n\n        for (uint256 i = 0; i < classCount; i++) {\n            Student[] storage students = school.classes[i].students;\n            for (uint256 j = 0; j < students.length; j++) {\n                if (\n                    keccak256(bytes(students[j].name)) == keccak256(bytes(_studentName)) &&\n                    keccak256(bytes(students[j].password)) == keccak256(bytes(_password))\n                ) {\n                    return true;\n                    // Found the student\n                }\n            }\n        }\n\n        return false;\n        // Student not found\n    }\n\n    function createElection(string memory electionName, string[] memory electionOptions) public {\n        // Create an election\n        elections.push(Election(electionName, electionOptions, 0));\n\n    }\n\n    function getElection(string memory electionName) public view returns (string memory, string[] memory, uint) {\n        for (uint i = 0; i < elections.length; i++) {\n            if (keccak256(bytes(elections[i].name)) == keccak256(bytes(electionName))) {\n                require(i < elections.length, \"Invalid index\");\n\n                Election storage election = elections[i];\n                return (election.name, election.options, election.voteCount);\n            }\n        }\n        revert(\"Election not found\");\n    }\n\n}",
  "sourcePath": "/Users/lukasscholz/repositorys/decentralizeddemocraticrepublic/contracts/Schools.sol",
  "compiler": {
    "name": "solc",
    "version": "0.5.16+commit.9c3226ce.Emscripten.clang"
  },
  "schemaVersion": "3.4.13",
  "updatedAt": "2023-06-14T16:19:14.501Z",
  "devdoc": {
    "methods": {}
  },
  "userdoc": {
    "methods": {}
  }
}