{
  "contractName": "School",
  "abi": [
    {
      "constant": false,
      "inputs": [
        {
          "internalType": "string",
          "name": "_name",
          "type": "string"
        }
      ],
      "name": "createSchool",
      "outputs": [],
      "payable": false,
      "stateMutability": "nonpayable",
      "type": "function"
    },
    {
      "constant": true,
      "inputs": [
        {
          "internalType": "string",
          "name": "username",
          "type": "string"
        },
        {
          "internalType": "string",
          "name": "password",
          "type": "string"
        },
        {
          "internalType": "string",
          "name": "_school_name",
          "type": "string"
        }
      ],
      "name": "logIn",
      "outputs": [
        {
          "internalType": "bool",
          "name": "",
          "type": "bool"
        },
        {
          "internalType": "string",
          "name": "",
          "type": "string"
        }
      ],
      "payable": false,
      "stateMutability": "view",
      "type": "function"
    },
    {
      "constant": false,
      "inputs": [
        {
          "internalType": "string",
          "name": "_name",
          "type": "string"
        },
        {
          "internalType": "string",
          "name": "_school_name",
          "type": "string"
        }
      ],
      "name": "createClass",
      "outputs": [],
      "payable": false,
      "stateMutability": "nonpayable",
      "type": "function"
    },
    {
      "constant": false,
      "inputs": [
        {
          "internalType": "string",
          "name": "_teacherName",
          "type": "string"
        },
        {
          "internalType": "string",
          "name": "_password",
          "type": "string"
        },
        {
          "internalType": "string",
          "name": "class_name",
          "type": "string"
        },
        {
          "internalType": "string",
          "name": "_school_name",
          "type": "string"
        }
      ],
      "name": "addTeacherToClass",
      "outputs": [],
      "payable": false,
      "stateMutability": "nonpayable",
      "type": "function"
    },
    {
      "constant": false,
      "inputs": [
        {
          "internalType": "string",
          "name": "_studentName",
          "type": "string"
        },
        {
          "internalType": "string",
          "name": "_password",
          "type": "string"
        },
        {
          "internalType": "string",
          "name": "class_name",
          "type": "string"
        },
        {
          "internalType": "string",
          "name": "_school_name",
          "type": "string"
        }
      ],
      "name": "addStudentToClass",
      "outputs": [],
      "payable": false,
      "stateMutability": "nonpayable",
      "type": "function"
    },
    {
      "constant": true,
      "inputs": [
        {
          "internalType": "string",
          "name": "class_name",
          "type": "string"
        },
        {
          "internalType": "string",
          "name": "_school_name",
          "type": "string"
        }
      ],
      "name": "getClassDetails",
      "outputs": [
        {
          "internalType": "uint256",
          "name": "",
          "type": "uint256"
        },
        {
          "internalType": "uint256",
          "name": "",
          "type": "uint256"
        }
      ],
      "payable": false,
      "stateMutability": "view",
      "type": "function"
    },
    {
      "constant": true,
      "inputs": [
        {
          "internalType": "string",
          "name": "_school_name",
          "type": "string"
        }
      ],
      "name": "getAllClasses",
      "outputs": [
        {
          "internalType": "string[]",
          "name": "",
          "type": "string[]"
        }
      ],
      "payable": false,
      "stateMutability": "view",
      "type": "function"
    },
    {
      "constant": false,
      "inputs": [
        {
          "internalType": "string",
          "name": "_electionId",
          "type": "string"
        },
        {
          "internalType": "string",
          "name": "_name",
          "type": "string"
        },
        {
          "internalType": "string[]",
          "name": "_options",
          "type": "string[]"
        },
        {
          "internalType": "string",
          "name": "_school_name",
          "type": "string"
        }
      ],
      "name": "createElection",
      "outputs": [],
      "payable": false,
      "stateMutability": "nonpayable",
      "type": "function"
    },
    {
      "constant": true,
      "inputs": [
        {
          "internalType": "string",
          "name": "electionID",
          "type": "string"
        },
        {
          "internalType": "string",
          "name": "_school_name",
          "type": "string"
        }
      ],
      "name": "getElectionName",
      "outputs": [
        {
          "internalType": "string",
          "name": "",
          "type": "string"
        }
      ],
      "payable": false,
      "stateMutability": "view",
      "type": "function"
    },
    {
      "constant": false,
      "inputs": [
        {
          "internalType": "string",
          "name": "electionID",
          "type": "string"
        },
        {
          "internalType": "string",
          "name": "option",
          "type": "string"
        },
        {
          "internalType": "string",
          "name": "_school_name",
          "type": "string"
        }
      ],
      "name": "vote",
      "outputs": [],
      "payable": false,
      "stateMutability": "nonpayable",
      "type": "function"
    },
    {
      "constant": true,
      "inputs": [
        {
          "internalType": "string",
          "name": "electionID",
          "type": "string"
        },
        {
          "internalType": "string",
          "name": "_school_name",
          "type": "string"
        }
      ],
      "name": "getWinner",
      "outputs": [
        {
          "internalType": "string",
          "name": "",
          "type": "string"
        },
        {
          "internalType": "uint256",
          "name": "",
          "type": "uint256"
        }
      ],
      "payable": false,
      "stateMutability": "view",
      "type": "function"
    }
  ],
  "bytecode": "0x608060405234801561001057600080fd5b50612628806100206000396000f3fe608060405234801561001057600080fd5b50600436106100a95760003560e01c806385ecbe721161007157806385ecbe7214610177578063877920f9146101a857806395f59fe1146101c4578063c5727249146101e0578063ecece6d514610211578063f0dcb15c1461022d576100a9565b806303daa00f146100ae5780632e7a8662146100ca5780633a0febad146100fa578063542a832e146101165780635f712c2114610146575b600080fd5b6100c860048036036100c39190810190611d95565b610249565b005b6100e460048036036100df9190810190611bcf565b610533565b6040516100f19190612303565b60405180910390f35b610114600480360361010f9190810190611bcf565b6106b5565b005b610130600480360361012b9190810190611b8e565b610939565b60405161013d91906122b1565b60405180910390f35b610160600480360361015b9190810190611cfe565b610adc565b60405161016e9291906122d3565b60405180910390f35b610191600480360361018c9190810190611bcf565b610df3565b60405161019f929190612325565b60405180910390f35b6101c260048036036101bd9190810190611d95565b610fa6565b005b6101de60048036036101d99190810190611cfe565b61122e565b005b6101fa60048036036101f59190810190611bcf565b61133d565b6040516102089291906123f5565b60405180910390f35b61022b60048036036102269190810190611c3b565b611562565b005b61024760048036036102429190810190611b8e565b6116cb565b005b6000808260405161025a9190612283565b90815260200160405180910390209050600073ffffffffffffffffffffffffffffffffffffffff168160000160009054906101000a900473ffffffffffffffffffffffffffffffffffffffff1673ffffffffffffffffffffffffffffffffffffffff1614156102fe576040517f08c379a00000000000000000000000000000000000000000000000000000000081526004016102f5906123d5565b60405180910390fd5b3373ffffffffffffffffffffffffffffffffffffffff168160000160009054906101000a900473ffffffffffffffffffffffffffffffffffffffff1673ffffffffffffffffffffffffffffffffffffffff161461035a57600080fd5b6104478382600101805480602002602001604051908101604052809291908181526020016000905b8282101561043e578382906000526020600020018054600181600116156101000203166002900480601f01602080910402602001604051908101604052809291908181526020018280546001816001161561010002031660029004801561042a5780601f106103ff5761010080835404028352916020019161042a565b820191906000526020600020905b81548152906001019060200180831161040d57829003601f168201915b505050505081526020019060010190610382565b505050506117de565b610486576040517f08c379a000000000000000000000000000000000000000000000000000000000815260040161047d90612375565b60405180910390fd5b6000816002018460405161049a9190612283565b908152602001604051809103902090508060000160405180604001604052808881526020018781525090806001815401808255809150509060018203906000526020600020906002020160009091929091909150600082015181600001908051906020019061050a929190611879565b506020820151816001019080519060200190610527929190611879565b50505050505050505050565b6060600080836040516105469190612283565b90815260200160405180910390209050600073ffffffffffffffffffffffffffffffffffffffff168160000160009054906101000a900473ffffffffffffffffffffffffffffffffffffffff1673ffffffffffffffffffffffffffffffffffffffff1614156105ea576040517f08c379a00000000000000000000000000000000000000000000000000000000081526004016105e1906123d5565b60405180910390fd5b600081600301856040516105fe9190612283565b90815260200160405180910390209050806000018054600181600116156101000203166002900480601f0160208091040260200160405190810160405280929190818152602001828054600181600116156101000203166002900480156106a65780601f1061067b576101008083540402835291602001916106a6565b820191906000526020600020905b81548152906001019060200180831161068957829003601f168201915b50505050509250505092915050565b600080826040516106c69190612283565b90815260200160405180910390209050600073ffffffffffffffffffffffffffffffffffffffff168160000160009054906101000a900473ffffffffffffffffffffffffffffffffffffffff1673ffffffffffffffffffffffffffffffffffffffff16141561076a576040517f08c379a0000000000000000000000000000000000000000000000000000000008152600401610761906123d5565b60405180910390fd5b3373ffffffffffffffffffffffffffffffffffffffff168160000160009054906101000a900473ffffffffffffffffffffffffffffffffffffffff1673ffffffffffffffffffffffffffffffffffffffff16146107c657600080fd5b6108b38382600101805480602002602001604051908101604052809291908181526020016000905b828210156108aa578382906000526020600020018054600181600116156101000203166002900480601f0160208091040260200160405190810160405280929190818152602001828054600181600116156101000203166002900480156108965780601f1061086b57610100808354040283529160200191610896565b820191906000526020600020905b81548152906001019060200180831161087957829003601f168201915b5050505050815260200190600101906107ee565b505050506117de565b156108f3576040517f08c379a00000000000000000000000000000000000000000000000000000000081526004016108ea90612395565b60405180910390fd5b806001018390806001815401808255809150509060018203906000526020600020016000909192909190915090805190602001906109329291906118f9565b5050505050565b60606000808360405161094c9190612283565b90815260200160405180910390209050600073ffffffffffffffffffffffffffffffffffffffff168160000160009054906101000a900473ffffffffffffffffffffffffffffffffffffffff1673ffffffffffffffffffffffffffffffffffffffff1614156109f0576040517f08c379a00000000000000000000000000000000000000000000000000000000081526004016109e7906123d5565b60405180910390fd5b80600101805480602002602001604051908101604052809291908181526020016000905b82821015610ad0578382906000526020600020018054600181600116156101000203166002900480601f016020809104026020016040519081016040528092919081815260200182805460018160011615610100020316600290048015610abc5780601f10610a9157610100808354040283529160200191610abc565b820191906000526020600020905b815481529060010190602001808311610a9f57829003601f168201915b505050505081526020019060010190610a14565b50505050915050919050565b6000606060008084604051610af19190612283565b90815260200160405180910390209050600073ffffffffffffffffffffffffffffffffffffffff168160000160009054906101000a900473ffffffffffffffffffffffffffffffffffffffff1673ffffffffffffffffffffffffffffffffffffffff161415610b95576040517f08c379a0000000000000000000000000000000000000000000000000000000008152600401610b8c906123d5565b60405180910390fd5b60008090505b8160010180549050811015610dd257600082600201836001018381548110610bbf57fe5b90600052602060002001604051610bd6919061229a565b9081526020016040518091039020905060008090505b8160010180549050811015610cd4578880519060200120826001018281548110610c1257fe5b9060005260206000209060020201600001604051610c309190612255565b60405180910390201415610cc7578780519060200120826001018281548110610c5557fe5b9060005260206000209060020201600101604051610c739190612255565b60405180910390201415610cc65760016040518060400160405280600781526020017f73747564656e74000000000000000000000000000000000000000000000000008152509550955050505050610deb565b5b8080600101915050610bec565b5060008090505b8160000180549050811015610dc3578880519060200120826000018281548110610d0157fe5b9060005260206000209060020201600001604051610d1f9190612255565b60405180910390201415610db6578780519060200120826000018281548110610d4457fe5b9060005260206000209060020201600101604051610d629190612255565b60405180910390201415610db55760016040518060400160405280600781526020017f74656163686572000000000000000000000000000000000000000000000000008152509550955050505050610deb565b5b8080600101915050610cdb565b50508080600101915050610b9b565b5060006040518060200160405280600081525092509250505b935093915050565b6060600080600084604051610e089190612283565b9081526020016040518091039020905060008160030186604051610e2c9190612283565b908152602001604051809103902090506000809050606060008090505b8360010180549050811015610f51576060846001018281548110610e6957fe5b906000526020600020018054600181600116156101000203166002900480601f016020809104026020016040519081016040528092919081815260200182805460018160011615610100020316600290048015610f075780601f10610edc57610100808354040283529160200191610f07565b820191906000526020600020905b815481529060010190602001808311610eea57829003601f168201915b5050505050905060008560020182604051610f229190612283565b908152602001604051809103902054905084811115610f42578094508193505b50508080600101915050610e49565b5060008211610f95576040517f08c379a0000000000000000000000000000000000000000000000000000000008152600401610f8c906123b5565b60405180910390fd5b808295509550505050509250929050565b60008082604051610fb79190612283565b90815260200160405180910390209050600073ffffffffffffffffffffffffffffffffffffffff168160000160009054906101000a900473ffffffffffffffffffffffffffffffffffffffff1673ffffffffffffffffffffffffffffffffffffffff16141561105b576040517f08c379a0000000000000000000000000000000000000000000000000000000008152600401611052906123d5565b60405180910390fd5b6111488382600101805480602002602001604051908101604052809291908181526020016000905b8282101561113f578382906000526020600020018054600181600116156101000203166002900480601f01602080910402602001604051908101604052809291908181526020018280546001816001161561010002031660029004801561112b5780601f106111005761010080835404028352916020019161112b565b820191906000526020600020905b81548152906001019060200180831161110e57829003601f168201915b505050505081526020019060010190611083565b505050506117de565b611187576040517f08c379a000000000000000000000000000000000000000000000000000000000815260040161117e90612375565b60405180910390fd5b80600201836040516111999190612283565b9081526020016040518091039020600101604051806040016040528087815260200186815250908060018154018082558091505090600182039060005260206000209060020201600090919290919091506000820151816000019080519060200190611206929190611879565b506020820151816001019080519060200190611223929190611879565b505050505050505050565b6000808260405161123f9190612283565b90815260200160405180910390209050600073ffffffffffffffffffffffffffffffffffffffff168160000160009054906101000a900473ffffffffffffffffffffffffffffffffffffffff1673ffffffffffffffffffffffffffffffffffffffff1614156112e3576040517f08c379a00000000000000000000000000000000000000000000000000000000081526004016112da906123d5565b60405180910390fd5b600081600301856040516112f79190612283565b908152602001604051809103902090506001816002018560405161131b9190612283565b9081526020016040518091039020600082825401925050819055505050505050565b600080600080846040516113519190612283565b90815260200160405180910390209050600081600201866040516113759190612283565b90815260200160405180910390209050600073ffffffffffffffffffffffffffffffffffffffff168260000160009054906101000a900473ffffffffffffffffffffffffffffffffffffffff1673ffffffffffffffffffffffffffffffffffffffff161415611419576040517f08c379a0000000000000000000000000000000000000000000000000000000008152600401611410906123d5565b60405180910390fd5b6115068683600101805480602002602001604051908101604052809291908181526020016000905b828210156114fd578382906000526020600020018054600181600116156101000203166002900480601f0160208091040260200160405190810160405280929190818152602001828054600181600116156101000203166002900480156114e95780601f106114be576101008083540402835291602001916114e9565b820191906000526020600020905b8154815290600101906020018083116114cc57829003601f168201915b505050505081526020019060010190611441565b505050506117de565b611545576040517f08c379a000000000000000000000000000000000000000000000000000000000815260040161153c90612375565b60405180910390fd5b806000018054905081600101805490509350935050509250929050565b600080826040516115739190612283565b90815260200160405180910390209050600073ffffffffffffffffffffffffffffffffffffffff168160000160009054906101000a900473ffffffffffffffffffffffffffffffffffffffff1673ffffffffffffffffffffffffffffffffffffffff161415611617576040517f08c379a000000000000000000000000000000000000000000000000000000000815260040161160e906123d5565b60405180910390fd5b6000816003018660405161162b9190612283565b90815260200160405180910390209050848160000190805190602001906116539291906118f9565b508381600101908051906020019061166c929190611979565b5060008090505b84518110156116c25760008260020186838151811061168e57fe5b60200260200101516040516116a3919061226c565b9081526020016040518091039020819055508080600101915050611673565b50505050505050565b600073ffffffffffffffffffffffffffffffffffffffff166000826040516116f39190612283565b908152602001604051809103902060000160009054906101000a900473ffffffffffffffffffffffffffffffffffffffff1673ffffffffffffffffffffffffffffffffffffffff161461177b576040517f08c379a000000000000000000000000000000000000000000000000000000000815260040161177290612355565b60405180910390fd5b3360008260405161178c9190612283565b908152602001604051809103902060000160006101000a81548173ffffffffffffffffffffffffffffffffffffffff021916908373ffffffffffffffffffffffffffffffffffffffff16021790555050565b600080600090505b825181101561186d57836040516020016118009190612283565b6040516020818303038152906040528051906020012083828151811061182257fe5b602002602001015160405160200161183a919061226c565b604051602081830303815290604052805190602001201415611860576001915050611873565b80806001019150506117e6565b50600090505b92915050565b828054600181600116156101000203166002900490600052602060002090601f016020900481019282601f106118ba57805160ff19168380011785556118e8565b828001600101855582156118e8579182015b828111156118e75782518255916020019190600101906118cc565b5b5090506118f591906119d9565b5090565b828054600181600116156101000203166002900490600052602060002090601f016020900481019282601f1061193a57805160ff1916838001178555611968565b82800160010185558215611968579182015b8281111561196757825182559160200191906001019061194c565b5b50905061197591906119d9565b5090565b8280548282559060005260206000209081019282156119c8579160200282015b828111156119c75782518290805190602001906119b7929190611879565b5091602001919060010190611999565b5b5090506119d591906119fe565b5090565b6119fb91905b808211156119f75760008160009055506001016119df565b5090565b90565b611a2791905b80821115611a235760008181611a1a9190611a2a565b50600101611a04565b5090565b90565b50805460018160011615610100020316600290046000825580601f10611a505750611a6f565b601f016020900490600052602060002090810190611a6e91906119d9565b5b50565b600082601f830112611a8357600080fd5b8135611a96611a918261244b565b61241e565b9150818183526020840193506020810190508360005b83811015611adc5781358601611ac28882611ae6565b845260208401935060208301925050600181019050611aac565b5050505092915050565b600082601f830112611af757600080fd5b8135611b0a611b0582612473565b61241e565b91508082526020830160208301858383011115611b2657600080fd5b611b31838284612592565b50505092915050565b600082601f830112611b4b57600080fd5b8135611b5e611b598261249f565b61241e565b91508082526020830160208301858383011115611b7a57600080fd5b611b85838284612592565b50505092915050565b600060208284031215611ba057600080fd5b600082013567ffffffffffffffff811115611bba57600080fd5b611bc684828501611b3a565b91505092915050565b60008060408385031215611be257600080fd5b600083013567ffffffffffffffff811115611bfc57600080fd5b611c0885828601611b3a565b925050602083013567ffffffffffffffff811115611c2557600080fd5b611c3185828601611b3a565b9150509250929050565b60008060008060808587031215611c5157600080fd5b600085013567ffffffffffffffff811115611c6b57600080fd5b611c7787828801611b3a565b945050602085013567ffffffffffffffff811115611c9457600080fd5b611ca087828801611b3a565b935050604085013567ffffffffffffffff811115611cbd57600080fd5b611cc987828801611a72565b925050606085013567ffffffffffffffff811115611ce657600080fd5b611cf287828801611b3a565b91505092959194509250565b600080600060608486031215611d1357600080fd5b600084013567ffffffffffffffff811115611d2d57600080fd5b611d3986828701611b3a565b935050602084013567ffffffffffffffff811115611d5657600080fd5b611d6286828701611b3a565b925050604084013567ffffffffffffffff811115611d7f57600080fd5b611d8b86828701611b3a565b9150509250925092565b60008060008060808587031215611dab57600080fd5b600085013567ffffffffffffffff811115611dc557600080fd5b611dd187828801611b3a565b945050602085013567ffffffffffffffff811115611dee57600080fd5b611dfa87828801611b3a565b935050604085013567ffffffffffffffff811115611e1757600080fd5b611e2387828801611b3a565b925050606085013567ffffffffffffffff811115611e4057600080fd5b611e4c87828801611b3a565b91505092959194509250565b6000611e648383611fe8565b905092915050565b6000611e7782612505565b611e818185612533565b935083602082028501611e93856124cb565b8060005b85811015611ecf5784840389528151611eb08582611e58565b9450611ebb83612526565b925060208a01995050600181019050611e97565b50829750879550505050505092915050565b611eea8161257c565b82525050565b600081546001811660008114611f0d5760018114611f3257611f76565b607f6002830416611f1e8187612544565b955060ff1983168652808601935050611f76565b60028204611f408187612544565b9550611f4b856124db565b60005b82811015611f6d57815481890152600182019150602081019050611f4e565b82880195505050505b505092915050565b6000611f898261251b565b611f938185612560565b9350611fa38185602086016125a1565b611fac816125d4565b840191505092915050565b6000611fc28261251b565b611fcc8185612571565b9350611fdc8185602086016125a1565b80840191505092915050565b6000611ff382612510565b611ffd818561254f565b935061200d8185602086016125a1565b612016816125d4565b840191505092915050565b600061202c82612510565b6120368185612571565b93506120468185602086016125a1565b80840191505092915050565b60008154600181166000811461206f5760018114612094576120d8565b607f60028304166120808187612571565b955060ff19831686528086019350506120d8565b600282046120a28187612571565b95506120ad856124f0565b60005b828110156120cf578154818901526001820191506020810190506120b0565b82880195505050505b505092915050565b60006120ed603083612560565b91507f54686973206164647265737320616c7265616479206861732061207363686f6f60008301527f6c2061737369676e656420746f206974000000000000000000000000000000006020830152604082019050919050565b6000612153601483612560565b91507f436c61737320646f6573206e6f742065786973740000000000000000000000006000830152602082019050919050565b6000612193601483612560565b91507f436c61737320616c7265616479206578697374730000000000000000000000006000830152602082019050919050565b60006121d3601383612560565b91507f416c6c2076616c75657320617265207a65726f000000000000000000000000006000830152602082019050919050565b6000612213601583612560565b91507f5363686f6f6c20646f6573206e6f7420657869737400000000000000000000006000830152602082019050919050565b61224f81612588565b82525050565b60006122618284611ef0565b915081905092915050565b60006122788284612021565b915081905092915050565b600061228f8284611fb7565b915081905092915050565b60006122a68284612052565b915081905092915050565b600060208201905081810360008301526122cb8184611e6c565b905092915050565b60006040820190506122e86000830185611ee1565b81810360208301526122fa8184611f7e565b90509392505050565b6000602082019050818103600083015261231d8184611f7e565b905092915050565b6000604082019050818103600083015261233f8185611f7e565b905061234e6020830184612246565b9392505050565b6000602082019050818103600083015261236e816120e0565b9050919050565b6000602082019050818103600083015261238e81612146565b9050919050565b600060208201905081810360008301526123ae81612186565b9050919050565b600060208201905081810360008301526123ce816121c6565b9050919050565b600060208201905081810360008301526123ee81612206565b9050919050565b600060408201905061240a6000830185612246565b6124176020830184612246565b9392505050565b6000604051905081810181811067ffffffffffffffff8211171561244157600080fd5b8060405250919050565b600067ffffffffffffffff82111561246257600080fd5b602082029050602081019050919050565b600067ffffffffffffffff82111561248a57600080fd5b601f19601f8301169050602081019050919050565b600067ffffffffffffffff8211156124b657600080fd5b601f19601f8301169050602081019050919050565b6000819050602082019050919050565b60008190508160005260206000209050919050565b60008190508160005260206000209050919050565b600081519050919050565b600081519050919050565b600081519050919050565b6000602082019050919050565b600082825260208201905092915050565b600081905092915050565b600082825260208201905092915050565b600082825260208201905092915050565b600081905092915050565b60008115159050919050565b6000819050919050565b82818337600083830152505050565b60005b838110156125bf5780820151818401526020810190506125a4565b838111156125ce576000848401525b50505050565b6000601f19601f830116905091905056fea365627a7a7231582068b0d8c8dcca4a0af2092e30404f4695dd42a93283ea9e2bed97919a591a70926c6578706572696d656e74616cf564736f6c63430005100040",
  "source": "pragma solidity ^0.5.16;\npragma experimental ABIEncoderV2;\n\ncontract School {\n\n    struct Teacher {\n        string name;\n        string password;\n    }\n\n    struct Student {\n        string name;\n        string password;\n    }\n\n    struct Class {\n        Teacher[] teachers;\n        Student[] students;\n    }\n\n    struct SchoolData {\n        address principal;\n        string[] class_names; // keys for classes\n        mapping(string => Class) classes;\n        mapping(string => Election) elections;\n    }\n\n    struct Election {\n        string name;\n        string[] keys;\n        mapping(string => uint256) electionResults;\n    }\n\n    mapping(string => SchoolData) private schools;  // Mapping to store school data (Principal is owner)\n\n\n    function isElementInArray(string memory target, string[] memory array) private pure returns (bool) {\n        for (uint256 i = 0; i < array.length; i++) {\n            if (keccak256(abi.encodePacked(array[i])) == keccak256(abi.encodePacked(target))) {\n                return true;\n            }\n        }\n        return false;\n    }\n\n\n    // SCHOOL\n    function createSchool(string memory _name) public {\n        // Check if school already exists ==> Nein, implizit nur eine Schule pro Adresse (Principal) erlaubt!\n        require(schools[_name].principal == address(0), \"This address already has a school assigned to it\");\n        // Set the caller's address as the principal\n        schools[_name].principal = msg.sender;\n    }\n\n    function logIn(string memory username, string memory password, string memory _school_name) public view returns (bool, string memory){\n        SchoolData storage school = schools[_school_name];\n        require(school.principal != address(0), \"School does not exist\");\n        for(uint i = 0; i < school.class_names.length; i++){\n            Class storage class = school.classes[school.class_names[i]];\n            for (uint j = 0; j < class.students.length; j++){\n                if (keccak256(bytes(class.students[j].name)) == keccak256(bytes(username))) {\n                    if (keccak256(bytes(class.students[j].password)) == keccak256(bytes(password))) return (true, \"student\");\n                }\n            }\n            for (uint j = 0; j < class.teachers.length; j++){\n                if (keccak256(bytes(class.teachers[j].name)) == keccak256(bytes(username))) {\n                    if (keccak256(bytes(class.teachers[j].password)) == keccak256(bytes(password))) return (true, \"teacher\");\n                }\n            }\n        }\n        return (false, \"\");\n    }\n\n\n    // CLASS\n    function createClass(string memory _name, string memory _school_name) public {\n        SchoolData storage school = schools[_school_name];\n        require(school.principal != address(0), \"School does not exist\");\n        require(school.principal == msg.sender); // Principal function\n\n        require(!isElementInArray(_name, school.class_names), \"Class already exists\");\n\n        school.class_names.push(_name);\n        // Set the class name\n    }\n\n    function addTeacherToClass(string memory _teacherName, string memory _password, string memory class_name, string memory _school_name) public {\n        SchoolData storage school = schools[_school_name];\n        require(school.principal != address(0), \"School does not exist\");\n        require(school.principal == msg.sender); // Principal function\n        // Check if the school exists\n\n        require(isElementInArray(class_name, school.class_names), \"Class does not exist\");\n        // Check if class exists\n        Class storage class = school.classes[class_name];\n        class.teachers.push(Teacher(_teacherName, _password));\n        // Add teacher to the class\n    }\n\n    function addStudentToClass(string memory _studentName, string memory _password, string memory class_name, string memory _school_name) public {\n        SchoolData storage school = schools[_school_name];\n        require(school.principal != address(0), \"School does not exist\");\n        // Check if the school exists\n        require(isElementInArray(class_name, school.class_names), \"Class does not exist\");\n        // Check if class exists\n        school.classes[class_name].students.push(Student(_studentName, _password));\n        // Add student to the class\n    }\n\n    function getClassDetails(string memory class_name, string memory _school_name) public view returns (uint256, uint256) {\n        SchoolData storage school = schools[_school_name];\n        Class storage class = school.classes[class_name];\n        require(school.principal != address(0), \"School does not exist\");\n        // Check if the school exists\n        require(isElementInArray(class_name, school.class_names), \"Class does not exist\");\n        // Check if class exists\n        return (class.teachers.length, class.students.length);\n        // Get the class details (name, number of teachers, number of students)\n    }\n\n    function getAllClasses(string memory _school_name) public view returns (string[] memory){\n        SchoolData storage school = schools[_school_name];\n        require(school.principal != address(0), \"School does not exist\");\n        return school.class_names;\n    }\n\n\n    // ELECTION\n    function createElection(string memory _electionId, string memory _name, string[] memory _options, string memory _school_name) public {\n        SchoolData storage school = schools[_school_name];\n        require(school.principal != address(0), \"School does not exist\");\n        // Check if the school exists\n        Election storage election = school.elections[_electionId];\n        // TODO check if election exists\n        election.name = _name;\n        election.keys = _options;\n        // add options to election\n        for (uint i=0; i< _options.length; i++){\n            election.electionResults[_options[i]] = 0;\n        }\n    }\n\n    function getElectionName(string memory electionID, string memory _school_name) public view returns (string memory){\n        SchoolData storage school = schools[_school_name];\n        require(school.principal != address(0), \"School does not exist\");\n        Election storage election = school.elections[electionID];\n        return election.name;\n    }\n\n    function vote(string memory electionID, string memory option, string memory _school_name) public {\n        SchoolData storage school = schools[_school_name];\n        require(school.principal != address(0), \"School does not exist\");\n        Election storage election = school.elections[electionID];\n        // TODO check if election exists\n        // TODO check if option exists\n        election.electionResults[option] += 1;\n    }\n\n    function getWinner(string memory electionID, string memory _school_name) public view returns (string memory, uint256) {\n        SchoolData storage school = schools[_school_name];\n        Election storage election = school.elections[electionID];\n        uint256 maxResult = 0;\n        string memory maxKey;\n\n        // Iterate over the mapping\n        for (uint256 i_key = 0; i_key < election.keys.length; i_key++) {\n            string memory key = election.keys[i_key];\n            uint256 value = election.electionResults[key];\n\n            if (value > maxResult) {\n                maxResult = value;\n                maxKey = key;\n            }\n        }\n\n        require(maxResult > 0, \"All values are zero\");\n\n        return (maxKey, maxResult);\n    }\n\n}\n",
  "sourcePath": "/Users/lukasscholz/repositorys/decentralizeddemocraticrepublic/contracts/Schools.sol",
  "compiler": {
    "name": "solc",
    "version": "0.5.16+commit.9c3226ce.Emscripten.clang"
  },
  "schemaVersion": "3.4.13",
  "updatedAt": "2023-06-24T13:21:51.680Z",
  "networkType": "ethereum",
  "devdoc": {
    "methods": {}
  },
  "userdoc": {
    "methods": {}
  }
}