{
  "contractName": "School",
  "abi": [
    {
      "constant": true,
      "inputs": [
        {
          "internalType": "uint256",
          "name": "",
          "type": "uint256"
        }
      ],
      "name": "elections",
      "outputs": [
        {
          "internalType": "string",
          "name": "name",
          "type": "string"
        },
        {
          "internalType": "uint256",
          "name": "voteCount",
          "type": "uint256"
        }
      ],
      "payable": false,
      "stateMutability": "view",
      "type": "function"
    },
    {
      "constant": true,
      "inputs": [
        {
          "internalType": "address",
          "name": "",
          "type": "address"
        }
      ],
      "name": "schools",
      "outputs": [
        {
          "internalType": "string",
          "name": "name",
          "type": "string"
        },
        {
          "internalType": "address",
          "name": "principal",
          "type": "address"
        }
      ],
      "payable": false,
      "stateMutability": "view",
      "type": "function"
    },
    {
      "constant": false,
      "inputs": [
        {
          "internalType": "string",
          "name": "_name",
          "type": "string"
        }
      ],
      "name": "createSchool",
      "outputs": [],
      "payable": false,
      "stateMutability": "nonpayable",
      "type": "function"
    },
    {
      "constant": false,
      "inputs": [
        {
          "internalType": "uint256",
          "name": "_classId",
          "type": "uint256"
        },
        {
          "internalType": "string",
          "name": "_name",
          "type": "string"
        }
      ],
      "name": "createClass",
      "outputs": [],
      "payable": false,
      "stateMutability": "nonpayable",
      "type": "function"
    },
    {
      "constant": false,
      "inputs": [
        {
          "internalType": "uint256",
          "name": "_classId",
          "type": "uint256"
        },
        {
          "internalType": "string",
          "name": "_teacherName",
          "type": "string"
        },
        {
          "internalType": "uint256",
          "name": "_teacherId",
          "type": "uint256"
        }
      ],
      "name": "addTeacherToClass",
      "outputs": [],
      "payable": false,
      "stateMutability": "nonpayable",
      "type": "function"
    },
    {
      "constant": false,
      "inputs": [
        {
          "internalType": "uint256",
          "name": "_classId",
          "type": "uint256"
        },
        {
          "internalType": "string",
          "name": "_studentName",
          "type": "string"
        },
        {
          "internalType": "uint256",
          "name": "_studentId",
          "type": "uint256"
        },
        {
          "internalType": "string",
          "name": "_password",
          "type": "string"
        }
      ],
      "name": "addStudentToClass",
      "outputs": [],
      "payable": false,
      "stateMutability": "nonpayable",
      "type": "function"
    },
    {
      "constant": true,
      "inputs": [],
      "name": "getSchoolName",
      "outputs": [
        {
          "internalType": "string",
          "name": "",
          "type": "string"
        }
      ],
      "payable": false,
      "stateMutability": "view",
      "type": "function"
    },
    {
      "constant": true,
      "inputs": [
        {
          "internalType": "uint256",
          "name": "_classId",
          "type": "uint256"
        }
      ],
      "name": "getClassDetails",
      "outputs": [
        {
          "internalType": "string",
          "name": "",
          "type": "string"
        },
        {
          "internalType": "uint256",
          "name": "",
          "type": "uint256"
        },
        {
          "internalType": "uint256",
          "name": "",
          "type": "uint256"
        }
      ],
      "payable": false,
      "stateMutability": "view",
      "type": "function"
    },
    {
      "constant": false,
      "inputs": [
        {
          "internalType": "string",
          "name": "electionName",
          "type": "string"
        }
      ],
      "name": "createElection",
      "outputs": [],
      "payable": false,
      "stateMutability": "nonpayable",
      "type": "function"
    },
    {
      "constant": false,
      "inputs": [
        {
          "internalType": "uint256",
          "name": "electionID",
          "type": "uint256"
        }
      ],
      "name": "vote",
      "outputs": [],
      "payable": false,
      "stateMutability": "nonpayable",
      "type": "function"
    },
    {
      "constant": true,
      "inputs": [
        {
          "internalType": "uint256",
          "name": "electionID",
          "type": "uint256"
        }
      ],
      "name": "getVotes",
      "outputs": [
        {
          "internalType": "uint256",
          "name": "",
          "type": "uint256"
        }
      ],
      "payable": false,
      "stateMutability": "view",
      "type": "function"
    }
  ],
  "bytecode": "0x608060405234801561001057600080fd5b5061168b806100206000396000f3fe608060405234801561001057600080fd5b50600436106100a95760003560e01c8063727790fa11610071578063727790fa146103ec578063921c4c36146104dc578063e79be326146105a1578063edb8240a14610656578063f0dcb15c14610725578063ff981099146107e0576100a9565b80630121b93f146100ae57806315cf4a5f146100dc5780631beb119b146101555780634fc555c3146102bb5780635e6fef011461033e575b600080fd5b6100da600480360360208110156100c457600080fd5b8101908080359060200190929190505050610822565b005b610153600480360360208110156100f257600080fd5b810190808035906020019064010000000081111561010f57600080fd5b82018360208201111561012157600080fd5b8035906020019184600183028401116401000000008311171561014357600080fd5b9091929391929390505050610858565b005b6102b96004803603608081101561016b57600080fd5b81019080803590602001909291908035906020019064010000000081111561019257600080fd5b8201836020820111156101a457600080fd5b803590602001918460018302840111640100000000831117156101c657600080fd5b91908080601f016020809104026020016040519081016040528093929190818152602001838380828437600081840152601f19601f820116905080830192505050505050509192919290803590602001909291908035906020019064010000000081111561023357600080fd5b82018360208201111561024557600080fd5b8035906020019184600183028401116401000000008311171561026757600080fd5b91908080601f016020809104026020016040519081016040528093929190818152602001838380828437600081840152601f19601f820116905080830192505050505050509192919290505050610919565b005b6102c3610b60565b6040518080602001828103825283818151815260200191508051906020019080838360005b838110156103035780820151818401526020810190506102e8565b50505050905090810190601f1680156103305780820380516001836020036101000a031916815260200191505b509250505060405180910390f35b61036a6004803603602081101561035457600080fd5b8101908080359060200190929190505050610c42565b6040518080602001838152602001828103825284818151815260200191508051906020019080838360005b838110156103b0578082015181840152602081019050610395565b50505050905090810190601f1680156103dd5780820380516001836020036101000a031916815260200191505b50935050505060405180910390f35b61042e6004803603602081101561040257600080fd5b81019080803573ffffffffffffffffffffffffffffffffffffffff169060200190929190505050610d0b565b60405180806020018373ffffffffffffffffffffffffffffffffffffffff1673ffffffffffffffffffffffffffffffffffffffff168152602001828103825284818151815260200191508051906020019080838360005b838110156104a0578082015181840152602081019050610485565b50505050905090810190601f1680156104cd5780820380516001836020036101000a031916815260200191505b50935050505060405180910390f35b61059f600480360360408110156104f257600080fd5b81019080803590602001909291908035906020019064010000000081111561051957600080fd5b82018360208201111561052b57600080fd5b8035906020019184600183028401116401000000008311171561054d57600080fd5b91908080601f016020809104026020016040519081016040528093929190818152602001838380828437600081840152601f19601f820116905080830192505050505050509192919290505050610de7565b005b6105cd600480360360208110156105b757600080fd5b8101908080359060200190929190505050610fb4565b6040518080602001848152602001838152602001828103825285818151815260200191508051906020019080838360005b838110156106195780820151818401526020810190506105fe565b50505050905090810190601f1680156106465780820380516001836020036101000a031916815260200191505b5094505050505060405180910390f35b6107236004803603606081101561066c57600080fd5b81019080803590602001909291908035906020019064010000000081111561069357600080fd5b8201836020820111156106a557600080fd5b803590602001918460018302840111640100000000831117156106c757600080fd5b91908080601f016020809104026020016040519081016040528093929190818152602001838380828437600081840152601f19601f820116905080830192505050505050509192919290803590602001909291905050506110d4565b005b6107de6004803603602081101561073b57600080fd5b810190808035906020019064010000000081111561075857600080fd5b82018360208201111561076a57600080fd5b8035906020019184600183028401116401000000008311171561078c57600080fd5b91908080601f016020809104026020016040519081016040528093929190818152602001838380828437600081840152601f19601f8201169050808301925050505050505091929192905050506112f7565b005b61080c600480360360208110156107f657600080fd5b81019080803590602001909291905050506114b9565b6040518082815260200191505060405180910390f35b60008060008154811061083157fe5b90600052602060002090600202019050600181600101600082825401925050819055505050565b6108606114e7565b604051806040016040528084848080601f016020809104026020016040519081016040528093929190818152602001838380828437600081840152601f19601f82011690508083019250505050505050815260200160008152509050600081908060018154018082558091505090600182039060005260206000209060020201600090919290919091506000820151816000019080519060200190610906929190611501565b5060208201518160010155505050505050565b6000600160003373ffffffffffffffffffffffffffffffffffffffff1673ffffffffffffffffffffffffffffffffffffffff1681526020019081526020016000209050600073ffffffffffffffffffffffffffffffffffffffff168160010160009054906101000a900473ffffffffffffffffffffffffffffffffffffffff1673ffffffffffffffffffffffffffffffffffffffff161415610a23576040517f08c379a00000000000000000000000000000000000000000000000000000000081526004018080602001828103825260158152602001807f5363686f6f6c20646f6573206e6f74206578697374000000000000000000000081525060200191505060405180910390fd5b60008160020160008781526020019081526020016000206001018054905011610ab4576040517f08c379a00000000000000000000000000000000000000000000000000000000081526004018080602001828103825260148152602001807f436c61737320646f6573206e6f7420657869737400000000000000000000000081525060200191505060405180910390fd5b806002016000868152602001908152602001600020600201604051806060016040528086815260200184815260200185815250908060018154018082558091505090600182039060005260206000209060030201600090919290919091506000820151816000019080519060200190610b2e929190611501565b506020820151816001019080519060200190610b4b929190611501565b50604082015181600201555050505050505050565b6060600160003373ffffffffffffffffffffffffffffffffffffffff1673ffffffffffffffffffffffffffffffffffffffff1681526020019081526020016000206000018054600181600116156101000203166002900480601f016020809104026020016040519081016040528092919081815260200182805460018160011615610100020316600290048015610c385780601f10610c0d57610100808354040283529160200191610c38565b820191906000526020600020905b815481529060010190602001808311610c1b57829003601f168201915b5050505050905090565b60008181548110610c4f57fe5b9060005260206000209060020201600091509050806000018054600181600116156101000203166002900480601f016020809104026020016040519081016040528092919081815260200182805460018160011615610100020316600290048015610cfb5780601f10610cd057610100808354040283529160200191610cfb565b820191906000526020600020905b815481529060010190602001808311610cde57829003601f168201915b5050505050908060010154905082565b6001602052806000526040600020600091509050806000018054600181600116156101000203166002900480601f016020809104026020016040519081016040528092919081815260200182805460018160011615610100020316600290048015610db75780601f10610d8c57610100808354040283529160200191610db7565b820191906000526020600020905b815481529060010190602001808311610d9a57829003601f168201915b5050505050908060010160009054906101000a900473ffffffffffffffffffffffffffffffffffffffff16905082565b6000600160003373ffffffffffffffffffffffffffffffffffffffff1673ffffffffffffffffffffffffffffffffffffffff1681526020019081526020016000209050600073ffffffffffffffffffffffffffffffffffffffff168160010160009054906101000a900473ffffffffffffffffffffffffffffffffffffffff1673ffffffffffffffffffffffffffffffffffffffff161415610ef1576040517f08c379a00000000000000000000000000000000000000000000000000000000081526004018080602001828103825260158152602001807f5363686f6f6c20646f6573206e6f74206578697374000000000000000000000081525060200191505060405180910390fd5b60008160020160008581526020019081526020016000206001018054905014610f82576040517f08c379a00000000000000000000000000000000000000000000000000000000081526004018080602001828103825260148152602001807f436c61737320616c72656164792065786973747300000000000000000000000081525060200191505060405180910390fd5b818160020160008581526020019081526020016000206000019080519060200190610fae929190611581565b50505050565b60606000806000600160003373ffffffffffffffffffffffffffffffffffffffff1673ffffffffffffffffffffffffffffffffffffffff1681526020019081526020016000209050600081600201600087815260200190815260200160002090508060000181600101805490508260020180549050828054600181600116156101000203166002900480601f0160208091040260200160405190810160405280929190818152602001828054600181600116156101000203166002900480156110be5780601f10611093576101008083540402835291602001916110be565b820191906000526020600020905b8154815290600101906020018083116110a157829003601f168201915b5050505050925094509450945050509193909250565b6000600160003373ffffffffffffffffffffffffffffffffffffffff1673ffffffffffffffffffffffffffffffffffffffff1681526020019081526020016000209050600073ffffffffffffffffffffffffffffffffffffffff168160010160009054906101000a900473ffffffffffffffffffffffffffffffffffffffff1673ffffffffffffffffffffffffffffffffffffffff1614156111de576040517f08c379a00000000000000000000000000000000000000000000000000000000081526004018080602001828103825260158152602001807f5363686f6f6c20646f6573206e6f74206578697374000000000000000000000081525060200191505060405180910390fd5b6000816002016000868152602001908152602001600020600101805490501161126f576040517f08c379a00000000000000000000000000000000000000000000000000000000081526004018080602001828103825260148152602001807f436c61737320646f6573206e6f7420657869737400000000000000000000000081525060200191505060405180910390fd5b8060020160008581526020019081526020016000206001016040518060400160405280858152602001848152509080600181540180825580915050906001820390600052602060002090600202016000909192909190915060008201518160000190805190602001906112e3929190611501565b506020820151816001015550505050505050565b600073ffffffffffffffffffffffffffffffffffffffff16600160003373ffffffffffffffffffffffffffffffffffffffff1673ffffffffffffffffffffffffffffffffffffffff16815260200190815260200160002060010160009054906101000a900473ffffffffffffffffffffffffffffffffffffffff1673ffffffffffffffffffffffffffffffffffffffff16146113de576040517f08c379a00000000000000000000000000000000000000000000000000000000081526004018080602001828103825260308152602001806116276030913960400191505060405180910390fd5b80600160003373ffffffffffffffffffffffffffffffffffffffff1673ffffffffffffffffffffffffffffffffffffffff1681526020019081526020016000206000019080519060200190611434929190611581565b5033600160003373ffffffffffffffffffffffffffffffffffffffff1673ffffffffffffffffffffffffffffffffffffffff16815260200190815260200160002060010160006101000a81548173ffffffffffffffffffffffffffffffffffffffff021916908373ffffffffffffffffffffffffffffffffffffffff16021790555050565b60008060006001815481106114ca57fe5b906000526020600020906002020190508060010154915050919050565b604051806040016040528060608152602001600081525090565b828054600181600116156101000203166002900490600052602060002090601f016020900481019282601f1061154257805160ff1916838001178555611570565b82800160010185558215611570579182015b8281111561156f578251825591602001919060010190611554565b5b50905061157d9190611601565b5090565b828054600181600116156101000203166002900490600052602060002090601f016020900481019282601f106115c257805160ff19168380011785556115f0565b828001600101855582156115f0579182015b828111156115ef5782518255916020019190600101906115d4565b5b5090506115fd9190611601565b5090565b61162391905b8082111561161f576000816000905550600101611607565b5090565b9056fe54686973206164647265737320616c7265616479206861732061207363686f6f6c2061737369676e656420746f206974a265627a7a72315820071abcc7d741f8355e056af29715eec8427d4ce6d9ce032f35f8f527d4e54d1d64736f6c63430005100032",
  "source": "pragma solidity ^0.5.16;\n// pragma experimental ABIEncoderV2;\n\ncontract School {\n\n    struct Teacher {\n        string name;\n        uint256 id;\n    }\n\n    struct Student {\n        string name;\n        string password;\n        uint256 id;\n    }\n\n    struct Class {\n        string name;\n        Teacher[] teachers;\n        Student[] students;\n    }\n\n    struct SchoolData {\n        string name;\n        address principal;\n        mapping(uint256 => Class) classes;\n    }\n\n    struct Election {\n        string name;\n        uint voteCount;\n    }\n\n    Election[] public elections;\n    //mapping(uint => Election) public elections;\n\n    mapping(address => SchoolData) public schools;  // Mapping to store school data (Principal is owner)\n\n\n    // CREATE\n    function createSchool(string memory _name) public {\n        // Check if school already exists ==> Nein, implizit nur eine Schule pro Adresse (Principal) erlaubt!\n        require(schools[msg.sender].principal == address(0), \"This address already has a school assigned to it\");\n        // Set the school's name\n        schools[msg.sender].name = _name;  \n        // Set the caller's address as the principal\n        schools[msg.sender].principal = msg.sender;\n    }\n\n    function createClass(uint256 _classId, string memory _name) public {\n        SchoolData storage school = schools[msg.sender];\n        require(school.principal != address(0), \"School does not exist\");\n        // Check if the school exists\n        require(school.classes[_classId].teachers.length == 0, \"Class already exists\");\n        // Check if class already exists\n        school.classes[_classId].name = _name;\n        // Set the class name\n    }\n\n    function addTeacherToClass(uint256 _classId, string memory _teacherName, uint256 _teacherId) public {\n        SchoolData storage school = schools[msg.sender];\n        require(school.principal != address(0), \"School does not exist\");\n        // Check if the school exists\n        require(school.classes[_classId].teachers.length > 0, \"Class does not exist\");\n        // Check if class exists\n        school.classes[_classId].teachers.push(Teacher(_teacherName, _teacherId));\n        // Add teacher to the class\n    }\n\n    function addStudentToClass(uint256 _classId, string memory _studentName, uint256 _studentId, string memory _password) public {\n        SchoolData storage school = schools[msg.sender];\n        require(school.principal != address(0), \"School does not exist\");\n        // Check if the school exists\n        require(school.classes[_classId].teachers.length > 0, \"Class does not exist\");\n        // Check if class exists\n        school.classes[_classId].students.push(Student(_studentName, _password, _studentId));\n        // Add student to the class\n    }\n\n\n    // READ\n    function getSchoolName() public view returns (string memory) {\n        return schools[msg.sender].name;\n        // Get the name of the school\n    }\n\n    function getClassDetails(uint256 _classId) public view returns (string memory, uint256, uint256) {\n        SchoolData storage school = schools[msg.sender];\n        Class storage class = school.classes[_classId];\n        return (class.name, class.teachers.length, class.students.length);\n        // Get the class details (name, number of teachers, number of students)\n    }\n\n    function createElection(string calldata electionName) external {\n        Election memory election = Election(electionName, 0);\n        elections.push(election);\n        // elections[1] = Election(electionName, electionOptions, 0);\n    }\n\n    function vote(uint electionID) public {\n        Election storage election = elections[0];\n        election.voteCount += 1;\n    }\n\n\n    function getVotes(uint electionID) public view returns (uint) {\n        Election storage election = elections[1];\n        return election.voteCount;\n    }\n}",
  "sourcePath": "/Users/lukasscholz/repositorys/decentralizeddemocraticrepublic/contracts/Schools.sol",
  "compiler": {
    "name": "solc",
    "version": "0.5.16+commit.9c3226ce.Emscripten.clang"
  },
  "schemaVersion": "3.4.13",
  "updatedAt": "2023-06-15T12:17:56.720Z",
  "networkType": "ethereum",
  "devdoc": {
    "methods": {}
  },
  "userdoc": {
    "methods": {}
  }
}