{
  "contractName": "School",
  "abi": [
    {
      "constant": true,
      "inputs": [
        {
          "internalType": "address",
          "name": "",
          "type": "address"
        }
      ],
      "name": "schools",
      "outputs": [
        {
          "internalType": "string",
          "name": "name",
          "type": "string"
        },
        {
          "internalType": "address",
          "name": "principal",
          "type": "address"
        }
      ],
      "payable": false,
      "stateMutability": "view",
      "type": "function"
    },
    {
      "constant": false,
      "inputs": [
        {
          "internalType": "string",
          "name": "_name",
          "type": "string"
        }
      ],
      "name": "createSchool",
      "outputs": [],
      "payable": false,
      "stateMutability": "nonpayable",
      "type": "function"
    },
    {
      "constant": false,
      "inputs": [
        {
          "internalType": "uint256",
          "name": "_classId",
          "type": "uint256"
        },
        {
          "internalType": "string",
          "name": "_name",
          "type": "string"
        }
      ],
      "name": "createClass",
      "outputs": [],
      "payable": false,
      "stateMutability": "nonpayable",
      "type": "function"
    },
    {
      "constant": false,
      "inputs": [
        {
          "internalType": "uint256",
          "name": "_classId",
          "type": "uint256"
        },
        {
          "internalType": "string",
          "name": "_teacherName",
          "type": "string"
        },
        {
          "internalType": "uint256",
          "name": "_teacherId",
          "type": "uint256"
        }
      ],
      "name": "addTeacherToClass",
      "outputs": [],
      "payable": false,
      "stateMutability": "nonpayable",
      "type": "function"
    },
    {
      "constant": false,
      "inputs": [
        {
          "internalType": "uint256",
          "name": "_classId",
          "type": "uint256"
        },
        {
          "internalType": "string",
          "name": "_studentName",
          "type": "string"
        },
        {
          "internalType": "uint256",
          "name": "_studentId",
          "type": "uint256"
        },
        {
          "internalType": "string",
          "name": "_password",
          "type": "string"
        }
      ],
      "name": "addStudentToClass",
      "outputs": [],
      "payable": false,
      "stateMutability": "nonpayable",
      "type": "function"
    },
    {
      "constant": true,
      "inputs": [],
      "name": "getSchoolName",
      "outputs": [
        {
          "internalType": "string",
          "name": "",
          "type": "string"
        }
      ],
      "payable": false,
      "stateMutability": "view",
      "type": "function"
    },
    {
      "constant": true,
      "inputs": [
        {
          "internalType": "uint256",
          "name": "_classId",
          "type": "uint256"
        }
      ],
      "name": "getClassDetails",
      "outputs": [
        {
          "internalType": "string",
          "name": "",
          "type": "string"
        },
        {
          "internalType": "uint256",
          "name": "",
          "type": "uint256"
        },
        {
          "internalType": "uint256",
          "name": "",
          "type": "uint256"
        }
      ],
      "payable": false,
      "stateMutability": "view",
      "type": "function"
    },
    {
      "constant": true,
      "inputs": [
        {
          "internalType": "string",
          "name": "_name",
          "type": "string"
        },
        {
          "internalType": "string",
          "name": "_password",
          "type": "string"
        }
      ],
      "name": "log_in",
      "outputs": [
        {
          "internalType": "bool",
          "name": "",
          "type": "bool"
        },
        {
          "internalType": "string",
          "name": "",
          "type": "string"
        }
      ],
      "payable": false,
      "stateMutability": "view",
      "type": "function"
    }
  ],
  "bytecode": "0x608060405234801561001057600080fd5b5061198a806100206000396000f3fe608060405234801561001057600080fd5b50600436106100885760003560e01c8063921c4c361161005b578063921c4c361461053c578063e79be32614610601578063edb8240a146106b6578063f0dcb15c1461078557610088565b80631beb119b1461008d5780634fc555c3146101f35780636e002ce214610276578063727790fa1461044c575b600080fd5b6101f1600480360360808110156100a357600080fd5b8101908080359060200190929190803590602001906401000000008111156100ca57600080fd5b8201836020820111156100dc57600080fd5b803590602001918460018302840111640100000000831117156100fe57600080fd5b91908080601f016020809104026020016040519081016040528093929190818152602001838380828437600081840152601f19601f820116905080830192505050505050509192919290803590602001909291908035906020019064010000000081111561016b57600080fd5b82018360208201111561017d57600080fd5b8035906020019184600183028401116401000000008311171561019f57600080fd5b91908080601f016020809104026020016040519081016040528093929190818152602001838380828437600081840152601f19601f820116905080830192505050505050509192919290505050610840565b005b6101fb610ade565b6040518080602001828103825283818151815260200191508051906020019080838360005b8381101561023b578082015181840152602081019050610220565b50505050905090810190601f1680156102685780820380516001836020036101000a031916815260200191505b509250505060405180910390f35b6103c66004803603604081101561028c57600080fd5b81019080803590602001906401000000008111156102a957600080fd5b8201836020820111156102bb57600080fd5b803590602001918460018302840111640100000000831117156102dd57600080fd5b91908080601f016020809104026020016040519081016040528093929190818152602001838380828437600081840152601f19601f8201169050808301925050505050505091929192908035906020019064010000000081111561034057600080fd5b82018360208201111561035257600080fd5b8035906020019184600183028401116401000000008311171561037457600080fd5b91908080601f016020809104026020016040519081016040528093929190818152602001838380828437600081840152601f19601f820116905080830192505050505050509192919290505050610bbf565b604051808315151515815260200180602001828103825283818151815260200191508051906020019080838360005b838110156104105780820151818401526020810190506103f5565b50505050905090810190601f16801561043d5780820380516001836020036101000a031916815260200191505b50935050505060405180910390f35b61048e6004803603602081101561046257600080fd5b81019080803573ffffffffffffffffffffffffffffffffffffffff169060200190929190505050610f66565b60405180806020018373ffffffffffffffffffffffffffffffffffffffff1673ffffffffffffffffffffffffffffffffffffffff168152602001828103825284818151815260200191508051906020019080838360005b838110156105005780820151818401526020810190506104e5565b50505050905090810190601f16801561052d5780820380516001836020036101000a031916815260200191505b50935050505060405180910390f35b6105ff6004803603604081101561055257600080fd5b81019080803590602001909291908035906020019064010000000081111561057957600080fd5b82018360208201111561058b57600080fd5b803590602001918460018302840111640100000000831117156105ad57600080fd5b91908080601f016020809104026020016040519081016040528093929190818152602001838380828437600081840152601f19601f820116905080830192505050505050509192919290505050611042565b005b61062d6004803603602081101561061757600080fd5b810190808035906020019092919050505061120e565b6040518080602001848152602001838152602001828103825285818151815260200191508051906020019080838360005b8381101561067957808201518184015260208101905061065e565b50505050905090810190601f1680156106a65780820380516001836020036101000a031916815260200191505b5094505050505060405180910390f35b610783600480360360608110156106cc57600080fd5b8101908080359060200190929190803590602001906401000000008111156106f357600080fd5b82018360208201111561070557600080fd5b8035906020019184600183028401116401000000008311171561072757600080fd5b91908080601f016020809104026020016040519081016040528093929190818152602001838380828437600081840152601f19601f8201169050808301925050505050505091929192908035906020019092919050505061132d565b005b61083e6004803603602081101561079b57600080fd5b81019080803590602001906401000000008111156107b857600080fd5b8201836020820111156107ca57600080fd5b803590602001918460018302840111640100000000831117156107ec57600080fd5b91908080601f016020809104026020016040519081016040528093929190818152602001838380828437600081840152601f19601f8201169050808301925050505050505091929192905050506115a7565b005b60008060003373ffffffffffffffffffffffffffffffffffffffff1673ffffffffffffffffffffffffffffffffffffffff1681526020019081526020016000209050600073ffffffffffffffffffffffffffffffffffffffff168160010160009054906101000a900473ffffffffffffffffffffffffffffffffffffffff1673ffffffffffffffffffffffffffffffffffffffff161415610949576040517f08c379a00000000000000000000000000000000000000000000000000000000081526004018080602001828103825260158152602001807f5363686f6f6c20646f6573206e6f74206578697374000000000000000000000081525060200191505060405180910390fd5b600081600201600087815260200190815260200160002060010180549050116109da576040517f08c379a00000000000000000000000000000000000000000000000000000000081526004018080602001828103825260148152602001807f436c61737320646f6573206e6f7420657869737400000000000000000000000081525060200191505060405180910390fd5b80600201600086815260200190815260200160002060020160405180608001604052808681526020018481526020018581526020016040518060400160405280600781526020017f73747564656e7400000000000000000000000000000000000000000000000000815250815250908060018154018082558091505090600182039060005260206000209060040201600090919290919091506000820151816000019080519060200190610a8f929190611830565b506020820151816001019080519060200190610aac929190611830565b50604082015181600201556060820151816003019080519060200190610ad3929190611830565b505050505050505050565b60606000803373ffffffffffffffffffffffffffffffffffffffff1673ffffffffffffffffffffffffffffffffffffffff1681526020019081526020016000206000018054600181600116156101000203166002900480601f016020809104026020016040519081016040528092919081815260200182805460018160011615610100020316600290048015610bb55780601f10610b8a57610100808354040283529160200191610bb5565b820191906000526020600020905b815481529060010190602001808311610b9857829003601f168201915b5050505050905090565b6000606060008060003373ffffffffffffffffffffffffffffffffffffffff1673ffffffffffffffffffffffffffffffffffffffff16815260200190815260200160002090506060610c1082611783565b905060008090505b8151811015610f45576000828281518110610c2f57fe5b602002602001015190506000846002016000838152602001908152602001600020905060008090505b8160020180549050811015610f35576000826002018281548110610c7857fe5b906000526020600020906004020190508a6040516020018082805190602001908083835b60208310610cbf5780518252602082019150602081019050602083039250610c9c565b6001836020036101000a03801982511681845116808217855250505050505090500191505060405160208183030381529060405280519060200120816000016040516020018082805460018160011615610100020316600290048015610d5c5780601f10610d3a576101008083540402835291820191610d5c565b820191906000526020600020905b815481529060010190602001808311610d48575b505091505060405160208183030381529060405280519060200120148015610e705750896040516020018082805190602001908083835b60208310610db65780518252602082019150602081019050602083039250610d93565b6001836020036101000a03801982511681845116808217855250505050505090500191505060405160208183030381529060405280519060200120816001016040516020018082805460018160011615610100020316600290048015610e535780601f10610e31576101008083540402835291820191610e53565b820191906000526020600020905b815481529060010190602001808311610e3f575b505091505060405160208183030381529060405280519060200120145b15610f2757600181600301808054600181600116156101000203166002900480601f016020809104026020016040519081016040528092919081815260200182805460018160011615610100020316600290048015610f105780601f10610ee557610100808354040283529160200191610f10565b820191906000526020600020905b815481529060010190602001808311610ef357829003601f168201915b505050505090509850985050505050505050610f5f565b508080600101915050610c58565b5050508080600101915050610c18565b506000604051806020016040528060008152509350935050505b9250929050565b6000602052806000526040600020600091509050806000018054600181600116156101000203166002900480601f0160208091040260200160405190810160405280929190818152602001828054600181600116156101000203166002900480156110125780601f10610fe757610100808354040283529160200191611012565b820191906000526020600020905b815481529060010190602001808311610ff557829003601f168201915b5050505050908060010160009054906101000a900473ffffffffffffffffffffffffffffffffffffffff16905082565b60008060003373ffffffffffffffffffffffffffffffffffffffff1673ffffffffffffffffffffffffffffffffffffffff1681526020019081526020016000209050600073ffffffffffffffffffffffffffffffffffffffff168160010160009054906101000a900473ffffffffffffffffffffffffffffffffffffffff1673ffffffffffffffffffffffffffffffffffffffff16141561114b576040517f08c379a00000000000000000000000000000000000000000000000000000000081526004018080602001828103825260158152602001807f5363686f6f6c20646f6573206e6f74206578697374000000000000000000000081525060200191505060405180910390fd5b600081600201600085815260200190815260200160002060010180549050146111dc576040517f08c379a00000000000000000000000000000000000000000000000000000000081526004018080602001828103825260148152602001807f436c61737320616c72656164792065786973747300000000000000000000000081525060200191505060405180910390fd5b8181600201600085815260200190815260200160002060000190805190602001906112089291906118b0565b50505050565b606060008060008060003373ffffffffffffffffffffffffffffffffffffffff1673ffffffffffffffffffffffffffffffffffffffff1681526020019081526020016000209050600081600201600087815260200190815260200160002090508060000181600101805490508260020180549050828054600181600116156101000203166002900480601f0160208091040260200160405190810160405280929190818152602001828054600181600116156101000203166002900480156113175780601f106112ec57610100808354040283529160200191611317565b820191906000526020600020905b8154815290600101906020018083116112fa57829003601f168201915b5050505050925094509450945050509193909250565b60008060003373ffffffffffffffffffffffffffffffffffffffff1673ffffffffffffffffffffffffffffffffffffffff1681526020019081526020016000209050600073ffffffffffffffffffffffffffffffffffffffff168160010160009054906101000a900473ffffffffffffffffffffffffffffffffffffffff1673ffffffffffffffffffffffffffffffffffffffff161415611436576040517f08c379a00000000000000000000000000000000000000000000000000000000081526004018080602001828103825260158152602001807f5363686f6f6c20646f6573206e6f74206578697374000000000000000000000081525060200191505060405180910390fd5b600081600201600086815260200190815260200160002060010180549050116114c7576040517f08c379a00000000000000000000000000000000000000000000000000000000081526004018080602001828103825260148152602001807f436c61737320646f6573206e6f7420657869737400000000000000000000000081525060200191505060405180910390fd5b80600201600085815260200190815260200160002060010160405180606001604052808581526020018481526020016040518060400160405280600781526020017f7465616368657200000000000000000000000000000000000000000000000000815250815250908060018154018082558091505090600182039060005260206000209060030201600090919290919091506000820151816000019080519060200190611576929190611830565b5060208201518160010155604082015181600201908051906020019061159d929190611830565b5050505050505050565b600073ffffffffffffffffffffffffffffffffffffffff166000803373ffffffffffffffffffffffffffffffffffffffff1673ffffffffffffffffffffffffffffffffffffffff16815260200190815260200160002060010160009054906101000a900473ffffffffffffffffffffffffffffffffffffffff1673ffffffffffffffffffffffffffffffffffffffff16146116aa576040517f08c379a00000000000000000000000000000000000000000000000000000000081526004018080602001828103825260158152602001807f5363686f6f6c20616c726561647920657869737473000000000000000000000081525060200191505060405180910390fd5b806000803373ffffffffffffffffffffffffffffffffffffffff1673ffffffffffffffffffffffffffffffffffffffff16815260200190815260200160002060000190805190602001906116ff9291906118b0565b50336000803373ffffffffffffffffffffffffffffffffffffffff1673ffffffffffffffffffffffffffffffffffffffff16815260200190815260200160002060010160006101000a81548173ffffffffffffffffffffffffffffffffffffffff021916908373ffffffffffffffffffffffffffffffffffffffff16021790555050565b6060806101006040519080825280602002602001820160405280156117b75781602001602082028038833980820191505090505b509050600080905060008090505b610100811015611822576000856002016000838152602001908152602001600020600101805490501115611815578083838151811061180057fe5b60200260200101818152505081806001019250505b80806001019150506117c5565b508082528192505050919050565b828054600181600116156101000203166002900490600052602060002090601f016020900481019282601f1061187157805160ff191683800117855561189f565b8280016001018555821561189f579182015b8281111561189e578251825591602001919060010190611883565b5b5090506118ac9190611930565b5090565b828054600181600116156101000203166002900490600052602060002090601f016020900481019282601f106118f157805160ff191683800117855561191f565b8280016001018555821561191f579182015b8281111561191e578251825591602001919060010190611903565b5b50905061192c9190611930565b5090565b61195291905b8082111561194e576000816000905550600101611936565b5090565b9056fea265627a7a723158203a3db40a65bcefc9ed5fa2574cf4a76c6860c6fc41f21ff29019f6be1649cbd164736f6c63430005100032",
  "source": "pragma solidity ^0.5.16;\n\ncontract School {\n\n    struct Teacher {\n        string name;\n        uint256 id;\n        string role;  // New field for teacher role\n    }\n\n    struct Student {\n        string name;\n        string password;\n        uint256 id;\n        string role;  // New field for student role\n    }\n\n    struct Class {\n        string name;\n        Teacher[] teachers;\n        Student[] students;\n    }\n\n    struct SchoolData {\n        string name;\n        address principal;\n        mapping(uint256 => Class) classes;\n    }\n\n    mapping(address => SchoolData) public schools;  // Mapping to store school data (Principal is owner)\n\n    function createSchool(string memory _name) public {\n        require(schools[msg.sender].principal == address(0), \"School already exists\");  // Check if school already exists\n        schools[msg.sender].name = _name;  // Set the school's name\n        schools[msg.sender].principal = msg.sender;  // Set the caller's address as the principal\n    }\n\n    function createClass(uint256 _classId, string memory _name) public {\n        SchoolData storage school = schools[msg.sender];\n        require(school.principal != address(0), \"School does not exist\");  // Check if the school exists\n        require(school.classes[_classId].teachers.length == 0, \"Class already exists\");  // Check if class already exists\n        school.classes[_classId].name = _name;  // Set the class name\n    }\n\n    function addTeacherToClass(uint256 _classId, string memory _teacherName, uint256 _teacherId) public {\n        SchoolData storage school = schools[msg.sender];\n        require(school.principal != address(0), \"School does not exist\");  // Check if the school exists\n        require(school.classes[_classId].teachers.length > 0, \"Class does not exist\");  // Check if class exists\n        school.classes[_classId].teachers.push(Teacher(_teacherName, _teacherId, \"teacher\"));  // Add teacher to the class with role \"teacher\"\n    }\n\n    function addStudentToClass(uint256 _classId, string memory _studentName, uint256 _studentId, string memory _password) public {\n        SchoolData storage school = schools[msg.sender];\n        require(school.principal != address(0), \"School does not exist\");  // Check if the school exists\n        require(school.classes[_classId].teachers.length > 0, \"Class does not exist\");  // Check if class exists\n        school.classes[_classId].students.push(Student(_studentName, _password, _studentId, \"student\"));  // Add student to the class with role \"student\"\n    }\n\n    function getSchoolName() public view returns (string memory) {\n        return schools[msg.sender].name;  // Get the name of the school\n    }\n\n    function getClassDetails(uint256 _classId) public view returns (string memory, uint256, uint256) {\n        SchoolData storage school = schools[msg.sender];\n        Class storage class = school.classes[_classId];\n        return (class.name, class.teachers.length, class.students.length);  // Get the class details (name, number of teachers, number of students)\n    }\n\n    function log_in(string memory _name, string memory _password) public view returns (bool, string memory) {\n        SchoolData storage school = schools[msg.sender];\n\n        uint256[] memory classIds = getClassIds(school);\n        for (uint256 i = 0; i < classIds.length; i++) {\n            uint256 classId = classIds[i];\n            Class storage class = school.classes[classId];\n\n            for (uint256 j = 0; j < class.students.length; j++) {\n                Student storage student = class.students[j];\n\n                if (keccak256(abi.encodePacked(student.name)) == keccak256(abi.encodePacked(_name)) && keccak256(abi.encodePacked(student.password)) == keccak256(abi.encodePacked(_password))) {\n                    return (true, student.role);\n                }\n            }\n        }\n\n        return (false, \"\");  // Entry does not exist\n    }\n\n    function getClassIds(SchoolData storage _school) internal view returns (uint256[] memory) {\n        uint256[] memory classIds = new uint256[](256);\n        uint256 count = 0;\n\n        for (uint256 i = 0; i < 256; i++) {\n            if (_school.classes[i].teachers.length > 0) {\n                classIds[count] = i;\n                count++;\n            }\n        }\n\n        assembly {\n            mstore(classIds, count)\n        }\n\n        return classIds;\n    }\n}\n",
  "sourcePath": "/Users/lukasscholz/repositorys/decentralizeddemocraticrepublic/contracts/Schools.sol",
  "compiler": {
    "name": "solc",
    "version": "0.5.16+commit.9c3226ce.Emscripten.clang"
  },
  "schemaVersion": "3.4.13",
  "updatedAt": "2023-06-09T13:02:35.532Z",
  "devdoc": {
    "methods": {}
  },
  "userdoc": {
    "methods": {}
  }
}