{
  "contractName": "School",
  "abi": [
    {
      "constant": true,
      "inputs": [
        {
          "internalType": "address",
          "name": "",
          "type": "address"
        }
      ],
      "name": "schools",
      "outputs": [
        {
          "internalType": "string",
          "name": "name",
          "type": "string"
        },
        {
          "internalType": "address",
          "name": "principal",
          "type": "address"
        }
      ],
      "payable": false,
      "stateMutability": "view",
      "type": "function"
    },
    {
      "constant": false,
      "inputs": [
        {
          "internalType": "string",
          "name": "_name",
          "type": "string"
        }
      ],
      "name": "createSchool",
      "outputs": [],
      "payable": false,
      "stateMutability": "nonpayable",
      "type": "function"
    },
    {
      "constant": false,
      "inputs": [
        {
          "internalType": "uint256",
          "name": "_classId",
          "type": "uint256"
        },
        {
          "internalType": "string",
          "name": "_name",
          "type": "string"
        }
      ],
      "name": "createClass",
      "outputs": [],
      "payable": false,
      "stateMutability": "nonpayable",
      "type": "function"
    },
    {
      "constant": false,
      "inputs": [
        {
          "internalType": "uint256",
          "name": "_classId",
          "type": "uint256"
        },
        {
          "internalType": "string",
          "name": "_teacherName",
          "type": "string"
        },
        {
          "internalType": "uint256",
          "name": "_teacherId",
          "type": "uint256"
        }
      ],
      "name": "addTeacherToClass",
      "outputs": [],
      "payable": false,
      "stateMutability": "nonpayable",
      "type": "function"
    },
    {
      "constant": false,
      "inputs": [
        {
          "internalType": "uint256",
          "name": "_classId",
          "type": "uint256"
        },
        {
          "internalType": "string",
          "name": "_studentName",
          "type": "string"
        },
        {
          "internalType": "uint256",
          "name": "_studentId",
          "type": "uint256"
        },
        {
          "internalType": "string",
          "name": "_password",
          "type": "string"
        }
      ],
      "name": "addStudentToClass",
      "outputs": [],
      "payable": false,
      "stateMutability": "nonpayable",
      "type": "function"
    },
    {
      "constant": true,
      "inputs": [],
      "name": "getSchoolName",
      "outputs": [
        {
          "internalType": "string",
          "name": "",
          "type": "string"
        }
      ],
      "payable": false,
      "stateMutability": "view",
      "type": "function"
    },
    {
      "constant": true,
      "inputs": [
        {
          "internalType": "uint256",
          "name": "_classId",
          "type": "uint256"
        }
      ],
      "name": "getClassDetails",
      "outputs": [
        {
          "internalType": "string",
          "name": "",
          "type": "string"
        },
        {
          "internalType": "uint256",
          "name": "",
          "type": "uint256"
        },
        {
          "internalType": "uint256",
          "name": "",
          "type": "uint256"
        }
      ],
      "payable": false,
      "stateMutability": "view",
      "type": "function"
    },
    {
      "constant": true,
      "inputs": [
        {
          "internalType": "string",
          "name": "_studentName",
          "type": "string"
        },
        {
          "internalType": "string",
          "name": "_password",
          "type": "string"
        }
      ],
      "name": "log_in",
      "outputs": [
        {
          "internalType": "bool",
          "name": "",
          "type": "bool"
        }
      ],
      "payable": false,
      "stateMutability": "view",
      "type": "function"
    }
  ],
  "bytecode": "0x608060405234801561001057600080fd5b50611654806100206000396000f3fe608060405234801561001057600080fd5b50600436106100885760003560e01c8063921c4c361161005b578063921c4c36146104d0578063e79be32614610595578063edb8240a1461064a578063f0dcb15c1461071957610088565b80631beb119b1461008d5780634fc555c3146101f35780636e002ce214610276578063727790fa146103e0575b600080fd5b6101f1600480360360808110156100a357600080fd5b8101908080359060200190929190803590602001906401000000008111156100ca57600080fd5b8201836020820111156100dc57600080fd5b803590602001918460018302840111640100000000831117156100fe57600080fd5b91908080601f016020809104026020016040519081016040528093929190818152602001838380828437600081840152601f19601f820116905080830192505050505050509192919290803590602001909291908035906020019064010000000081111561016b57600080fd5b82018360208201111561017d57600080fd5b8035906020019184600183028401116401000000008311171561019f57600080fd5b91908080601f016020809104026020016040519081016040528093929190818152602001838380828437600081840152601f19601f8201169050808301925050505050505091929192905050506107d4565b005b6101fb610a1a565b6040518080602001828103825283818151815260200191508051906020019080838360005b8381101561023b578082015181840152602081019050610220565b50505050905090810190601f1680156102685780820380516001836020036101000a031916815260200191505b509250505060405180910390f35b6103c66004803603604081101561028c57600080fd5b81019080803590602001906401000000008111156102a957600080fd5b8201836020820111156102bb57600080fd5b803590602001918460018302840111640100000000831117156102dd57600080fd5b91908080601f016020809104026020016040519081016040528093929190818152602001838380828437600081840152601f19601f8201169050808301925050505050505091929192908035906020019064010000000081111561034057600080fd5b82018360208201111561035257600080fd5b8035906020019184600183028401116401000000008311171561037457600080fd5b91908080601f016020809104026020016040519081016040528093929190818152602001838380828437600081840152601f19601f820116905080830192505050505050509192919290505050610afb565b604051808215151515815260200191505060405180910390f35b610422600480360360208110156103f657600080fd5b81019080803573ffffffffffffffffffffffffffffffffffffffff169060200190929190505050610d35565b60405180806020018373ffffffffffffffffffffffffffffffffffffffff1673ffffffffffffffffffffffffffffffffffffffff168152602001828103825284818151815260200191508051906020019080838360005b83811015610494578082015181840152602081019050610479565b50505050905090810190601f1680156104c15780820380516001836020036101000a031916815260200191505b50935050505060405180910390f35b610593600480360360408110156104e657600080fd5b81019080803590602001909291908035906020019064010000000081111561050d57600080fd5b82018360208201111561051f57600080fd5b8035906020019184600183028401116401000000008311171561054157600080fd5b91908080601f016020809104026020016040519081016040528093929190818152602001838380828437600081840152601f19601f820116905080830192505050505050509192919290505050610e11565b005b6105c1600480360360208110156105ab57600080fd5b8101908080359060200190929190505050610fdd565b6040518080602001848152602001838152602001828103825285818151815260200191508051906020019080838360005b8381101561060d5780820151818401526020810190506105f2565b50505050905090810190601f16801561063a5780820380516001836020036101000a031916815260200191505b5094505050505060405180910390f35b6107176004803603606081101561066057600080fd5b81019080803590602001909291908035906020019064010000000081111561068757600080fd5b82018360208201111561069957600080fd5b803590602001918460018302840111640100000000831117156106bb57600080fd5b91908080601f016020809104026020016040519081016040528093929190818152602001838380828437600081840152601f19601f820116905080830192505050505050509192919290803590602001909291905050506110fc565b005b6107d26004803603602081101561072f57600080fd5b810190808035906020019064010000000081111561074c57600080fd5b82018360208201111561075e57600080fd5b8035906020019184600183028401116401000000008311171561078057600080fd5b91908080601f016020809104026020016040519081016040528093929190818152602001838380828437600081840152601f19601f82011690508083019250505050505050919291929050505061131e565b005b60008060003373ffffffffffffffffffffffffffffffffffffffff1673ffffffffffffffffffffffffffffffffffffffff1681526020019081526020016000209050600073ffffffffffffffffffffffffffffffffffffffff168160010160009054906101000a900473ffffffffffffffffffffffffffffffffffffffff1673ffffffffffffffffffffffffffffffffffffffff1614156108dd576040517f08c379a00000000000000000000000000000000000000000000000000000000081526004018080602001828103825260158152602001807f5363686f6f6c20646f6573206e6f74206578697374000000000000000000000081525060200191505060405180910390fd5b6000816002016000878152602001908152602001600020600101805490501161096e576040517f08c379a00000000000000000000000000000000000000000000000000000000081526004018080602001828103825260148152602001807f436c61737320646f6573206e6f7420657869737400000000000000000000000081525060200191505060405180910390fd5b8060020160008681526020019081526020016000206002016040518060600160405280868152602001848152602001858152509080600181540180825580915050906001820390600052602060002090600302016000909192909190915060008201518160000190805190602001906109e89291906114fa565b506020820151816001019080519060200190610a059291906114fa565b50604082015181600201555050505050505050565b60606000803373ffffffffffffffffffffffffffffffffffffffff1673ffffffffffffffffffffffffffffffffffffffff1681526020019081526020016000206000018054600181600116156101000203166002900480601f016020809104026020016040519081016040528092919081815260200182805460018160011615610100020316600290048015610af15780601f10610ac657610100808354040283529160200191610af1565b820191906000526020600020905b815481529060010190602001808311610ad457829003601f168201915b5050505050905090565b6000806000803373ffffffffffffffffffffffffffffffffffffffff1673ffffffffffffffffffffffffffffffffffffffff1681526020019081526020016000209050600080905060008090505b620f4240811015610b97576000836002016000838152602001908152602001600020600101805490501115610b85578180600101925050610b8a565b610b97565b8080600101915050610b49565b5060008090505b81811015610d27576000836002016000838152602001908152602001600020600201905060008090505b8180549050811015610d18578780519060200120828281548110610be857fe5b90600052602060002090600302016000016040518082805460018160011615610100020316600290048015610c545780601f10610c32576101008083540402835291820191610c54565b820191906000526020600020905b815481529060010190602001808311610c40575b50509150506040518091039020148015610cf857508680519060200120828281548110610c7d57fe5b90600052602060002090600302016001016040518082805460018160011615610100020316600290048015610ce95780601f10610cc7576101008083540402835291820191610ce9565b820191906000526020600020905b815481529060010190602001808311610cd5575b50509150506040518091039020145b15610d0b57600195505050505050610d2f565b8080600101915050610bc8565b50508080600101915050610b9e565b506000925050505b92915050565b6000602052806000526040600020600091509050806000018054600181600116156101000203166002900480601f016020809104026020016040519081016040528092919081815260200182805460018160011615610100020316600290048015610de15780601f10610db657610100808354040283529160200191610de1565b820191906000526020600020905b815481529060010190602001808311610dc457829003601f168201915b5050505050908060010160009054906101000a900473ffffffffffffffffffffffffffffffffffffffff16905082565b60008060003373ffffffffffffffffffffffffffffffffffffffff1673ffffffffffffffffffffffffffffffffffffffff1681526020019081526020016000209050600073ffffffffffffffffffffffffffffffffffffffff168160010160009054906101000a900473ffffffffffffffffffffffffffffffffffffffff1673ffffffffffffffffffffffffffffffffffffffff161415610f1a576040517f08c379a00000000000000000000000000000000000000000000000000000000081526004018080602001828103825260158152602001807f5363686f6f6c20646f6573206e6f74206578697374000000000000000000000081525060200191505060405180910390fd5b60008160020160008581526020019081526020016000206001018054905014610fab576040517f08c379a00000000000000000000000000000000000000000000000000000000081526004018080602001828103825260148152602001807f436c61737320616c72656164792065786973747300000000000000000000000081525060200191505060405180910390fd5b818160020160008581526020019081526020016000206000019080519060200190610fd792919061157a565b50505050565b606060008060008060003373ffffffffffffffffffffffffffffffffffffffff1673ffffffffffffffffffffffffffffffffffffffff1681526020019081526020016000209050600081600201600087815260200190815260200160002090508060000181600101805490508260020180549050828054600181600116156101000203166002900480601f0160208091040260200160405190810160405280929190818152602001828054600181600116156101000203166002900480156110e65780601f106110bb576101008083540402835291602001916110e6565b820191906000526020600020905b8154815290600101906020018083116110c957829003601f168201915b5050505050925094509450945050509193909250565b60008060003373ffffffffffffffffffffffffffffffffffffffff1673ffffffffffffffffffffffffffffffffffffffff1681526020019081526020016000209050600073ffffffffffffffffffffffffffffffffffffffff168160010160009054906101000a900473ffffffffffffffffffffffffffffffffffffffff1673ffffffffffffffffffffffffffffffffffffffff161415611205576040517f08c379a00000000000000000000000000000000000000000000000000000000081526004018080602001828103825260158152602001807f5363686f6f6c20646f6573206e6f74206578697374000000000000000000000081525060200191505060405180910390fd5b60008160020160008681526020019081526020016000206001018054905011611296576040517f08c379a00000000000000000000000000000000000000000000000000000000081526004018080602001828103825260148152602001807f436c61737320646f6573206e6f7420657869737400000000000000000000000081525060200191505060405180910390fd5b80600201600085815260200190815260200160002060010160405180604001604052808581526020018481525090806001815401808255809150509060018203906000526020600020906002020160009091929091909150600082015181600001908051906020019061130a9291906114fa565b506020820151816001015550505050505050565b600073ffffffffffffffffffffffffffffffffffffffff166000803373ffffffffffffffffffffffffffffffffffffffff1673ffffffffffffffffffffffffffffffffffffffff16815260200190815260200160002060010160009054906101000a900473ffffffffffffffffffffffffffffffffffffffff1673ffffffffffffffffffffffffffffffffffffffff1614611421576040517f08c379a00000000000000000000000000000000000000000000000000000000081526004018080602001828103825260158152602001807f5363686f6f6c20616c726561647920657869737473000000000000000000000081525060200191505060405180910390fd5b806000803373ffffffffffffffffffffffffffffffffffffffff1673ffffffffffffffffffffffffffffffffffffffff168152602001908152602001600020600001908051906020019061147692919061157a565b50336000803373ffffffffffffffffffffffffffffffffffffffff1673ffffffffffffffffffffffffffffffffffffffff16815260200190815260200160002060010160006101000a81548173ffffffffffffffffffffffffffffffffffffffff021916908373ffffffffffffffffffffffffffffffffffffffff16021790555050565b828054600181600116156101000203166002900490600052602060002090601f016020900481019282601f1061153b57805160ff1916838001178555611569565b82800160010185558215611569579182015b8281111561156857825182559160200191906001019061154d565b5b50905061157691906115fa565b5090565b828054600181600116156101000203166002900490600052602060002090601f016020900481019282601f106115bb57805160ff19168380011785556115e9565b828001600101855582156115e9579182015b828111156115e85782518255916020019190600101906115cd565b5b5090506115f691906115fa565b5090565b61161c91905b80821115611618576000816000905550600101611600565b5090565b9056fea265627a7a723158209e364e1da9ec8cc60d14c7134db0cb0c1d019d4aa5f0f9ffb13522307f71eec564736f6c63430005100032",
  "source": "pragma solidity ^0.5.16;\n\ncontract School {\n    \n    struct Teacher {\n        string name;\n        uint256 id;\n    }\n    \n    struct Student {\n        string name;\n        string password;\n        uint256 id;\n    }\n    \n    struct Class {\n        string name;\n        Teacher[] teachers;\n        Student[] students;\n    }\n    \n    struct SchoolData {\n        string name;\n        address principal;\n        mapping(uint256 => Class) classes;\n    }\n    \n    mapping(address => SchoolData) public schools;  // Mapping to store school data (Principal is owner)\n    \n    function createSchool(string memory _name) public {\n        require(schools[msg.sender].principal == address(0), \"School already exists\");  // Check if school already exists\n        schools[msg.sender].name = _name;  // Set the school's name\n        schools[msg.sender].principal = msg.sender;  // Set the caller's address as the principal\n    }\n    \n    function createClass(uint256 _classId, string memory _name) public {\n        SchoolData storage school = schools[msg.sender];\n        require(school.principal != address(0), \"School does not exist\");  // Check if the school exists\n        require(school.classes[_classId].teachers.length == 0, \"Class already exists\");  // Check if class already exists\n        school.classes[_classId].name = _name;  // Set the class name\n    }\n    \n    function addTeacherToClass(uint256 _classId, string memory _teacherName, uint256 _teacherId) public {\n        SchoolData storage school = schools[msg.sender];\n        require(school.principal != address(0), \"School does not exist\");  // Check if the school exists\n        require(school.classes[_classId].teachers.length > 0, \"Class does not exist\");  // Check if class exists\n        school.classes[_classId].teachers.push(Teacher(_teacherName, _teacherId));  // Add teacher to the class\n    }\n    \n    function addStudentToClass(uint256 _classId, string memory _studentName, uint256 _studentId, string memory _password) public {\n        SchoolData storage school = schools[msg.sender];\n        require(school.principal != address(0), \"School does not exist\");  // Check if the school exists\n        require(school.classes[_classId].teachers.length > 0, \"Class does not exist\");  // Check if class exists\n        school.classes[_classId].students.push(Student(_studentName, _password, _studentId));  // Add student to the class\n    }\n    \n    function getSchoolName() public view returns (string memory) {\n        return schools[msg.sender].name;  // Get the name of the school\n    }\n    \n    function getClassDetails(uint256 _classId) public view returns (string memory, uint256, uint256) {\n        SchoolData storage school = schools[msg.sender];\n        Class storage class = school.classes[_classId];\n        return (class.name, class.teachers.length, class.students.length);  // Get the class details (name, number of teachers, number of students)\n    }\n\n    function log_in(string memory _studentName, string memory _password) public view returns (bool) {\n        SchoolData storage school = schools[msg.sender];\n        uint256 classCount = 0;\n        for (uint256 i = 0; i < 1000000; i++) { // Assuming the maximum number of classes is 1,000,000\n            if (school.classes[i].teachers.length > 0) {\n                classCount++;\n            } else {\n                break;\n            }\n        }\n\n        for (uint256 i = 0; i < classCount; i++) {\n            Student[] storage students = school.classes[i].students;\n            for (uint256 j = 0; j < students.length; j++) {\n                if (\n                    keccak256(bytes(students[j].name)) == keccak256(bytes(_studentName)) &&\n                    keccak256(bytes(students[j].password)) == keccak256(bytes(_password))\n                ) {\n                    return true;  // Found the student\n                }\n            }\n        }\n\n        return false;  // Student not found\n    }\n}\n",
  "sourcePath": "/Users/lukasscholz/repositorys/decentralizeddemocraticrepublic/contracts/Schools.sol",
  "compiler": {
    "name": "solc",
    "version": "0.5.16+commit.9c3226ce.Emscripten.clang"
  },
  "schemaVersion": "3.4.13",
  "updatedAt": "2023-06-06T16:29:38.146Z",
  "devdoc": {
    "methods": {}
  },
  "userdoc": {
    "methods": {}
  }
}