{
  "contractName": "School",
  "abi": [
    {
      "constant": false,
      "inputs": [
        {
          "internalType": "string",
          "name": "_name",
          "type": "string"
        }
      ],
      "name": "createSchool",
      "outputs": [],
      "payable": false,
      "stateMutability": "nonpayable",
      "type": "function"
    },
    {
      "constant": true,
      "inputs": [
        {
          "internalType": "string",
          "name": "username",
          "type": "string"
        },
        {
          "internalType": "string",
          "name": "password",
          "type": "string"
        },
        {
          "internalType": "string",
          "name": "_school_name",
          "type": "string"
        }
      ],
      "name": "logIn",
      "outputs": [
        {
          "internalType": "bool",
          "name": "",
          "type": "bool"
        },
        {
          "internalType": "string",
          "name": "",
          "type": "string"
        }
      ],
      "payable": false,
      "stateMutability": "view",
      "type": "function"
    },
    {
      "constant": false,
      "inputs": [
        {
          "internalType": "string",
          "name": "_name",
          "type": "string"
        },
        {
          "internalType": "string",
          "name": "_school_name",
          "type": "string"
        }
      ],
      "name": "createClass",
      "outputs": [],
      "payable": false,
      "stateMutability": "nonpayable",
      "type": "function"
    },
    {
      "constant": false,
      "inputs": [
        {
          "internalType": "string",
          "name": "_teacherName",
          "type": "string"
        },
        {
          "internalType": "string",
          "name": "_password",
          "type": "string"
        },
        {
          "internalType": "string",
          "name": "class_name",
          "type": "string"
        },
        {
          "internalType": "string",
          "name": "_school_name",
          "type": "string"
        }
      ],
      "name": "addTeacherToClass",
      "outputs": [],
      "payable": false,
      "stateMutability": "nonpayable",
      "type": "function"
    },
    {
      "constant": false,
      "inputs": [
        {
          "internalType": "string",
          "name": "_studentName",
          "type": "string"
        },
        {
          "internalType": "string",
          "name": "_password",
          "type": "string"
        },
        {
          "internalType": "string",
          "name": "class_name",
          "type": "string"
        },
        {
          "internalType": "string",
          "name": "_school_name",
          "type": "string"
        }
      ],
      "name": "addStudentToClass",
      "outputs": [],
      "payable": false,
      "stateMutability": "nonpayable",
      "type": "function"
    },
    {
      "constant": true,
      "inputs": [
        {
          "internalType": "string",
          "name": "class_name",
          "type": "string"
        },
        {
          "internalType": "string",
          "name": "_school_name",
          "type": "string"
        }
      ],
      "name": "getClassDetails",
      "outputs": [
        {
          "internalType": "uint256",
          "name": "",
          "type": "uint256"
        },
        {
          "internalType": "uint256",
          "name": "",
          "type": "uint256"
        }
      ],
      "payable": false,
      "stateMutability": "view",
      "type": "function"
    },
    {
      "constant": true,
      "inputs": [
        {
          "internalType": "string",
          "name": "_school_name",
          "type": "string"
        }
      ],
      "name": "getAllClasses",
      "outputs": [
        {
          "internalType": "string[]",
          "name": "",
          "type": "string[]"
        }
      ],
      "payable": false,
      "stateMutability": "view",
      "type": "function"
    },
    {
      "constant": false,
      "inputs": [
        {
          "internalType": "string",
          "name": "_electionId",
          "type": "string"
        },
        {
          "internalType": "string",
          "name": "_name",
          "type": "string"
        },
        {
          "internalType": "string[]",
          "name": "_options",
          "type": "string[]"
        },
        {
          "internalType": "string",
          "name": "_school_name",
          "type": "string"
        }
      ],
      "name": "createElection",
      "outputs": [],
      "payable": false,
      "stateMutability": "nonpayable",
      "type": "function"
    },
    {
      "constant": true,
      "inputs": [
        {
          "internalType": "string",
          "name": "electionID",
          "type": "string"
        },
        {
          "internalType": "string",
          "name": "_school_name",
          "type": "string"
        }
      ],
      "name": "getElectionName",
      "outputs": [
        {
          "internalType": "string",
          "name": "",
          "type": "string"
        }
      ],
      "payable": false,
      "stateMutability": "view",
      "type": "function"
    },
    {
      "constant": false,
      "inputs": [
        {
          "internalType": "string",
          "name": "electionID",
          "type": "string"
        },
        {
          "internalType": "string",
          "name": "option",
          "type": "string"
        },
        {
          "internalType": "string",
          "name": "_school_name",
          "type": "string"
        }
      ],
      "name": "vote",
      "outputs": [],
      "payable": false,
      "stateMutability": "nonpayable",
      "type": "function"
    },
    {
      "constant": true,
      "inputs": [
        {
          "internalType": "string",
          "name": "_school_name",
          "type": "string"
        }
      ],
      "name": "getAllElectionIDs",
      "outputs": [
        {
          "internalType": "string[]",
          "name": "",
          "type": "string[]"
        }
      ],
      "payable": false,
      "stateMutability": "view",
      "type": "function"
    },
    {
      "constant": true,
      "inputs": [
        {
          "internalType": "string",
          "name": "electionID",
          "type": "string"
        },
        {
          "internalType": "string",
          "name": "_school_name",
          "type": "string"
        }
      ],
      "name": "getOptionsFromElection",
      "outputs": [
        {
          "internalType": "string[]",
          "name": "",
          "type": "string[]"
        }
      ],
      "payable": false,
      "stateMutability": "view",
      "type": "function"
    },
    {
      "constant": true,
      "inputs": [
        {
          "internalType": "string",
          "name": "electionID",
          "type": "string"
        },
        {
          "internalType": "string",
          "name": "_school_name",
          "type": "string"
        }
      ],
      "name": "getWinner",
      "outputs": [
        {
          "internalType": "string",
          "name": "",
          "type": "string"
        },
        {
          "internalType": "uint256",
          "name": "",
          "type": "uint256"
        }
      ],
      "payable": false,
      "stateMutability": "view",
      "type": "function"
    }
  ],
  "bytecode": "0x608060405234801561001057600080fd5b50612aef806100206000396000f3fe608060405234801561001057600080fd5b50600436106100cf5760003560e01c806385ecbe721161008c578063baeeb7d311610066578063baeeb7d314610236578063c572724914610266578063ecece6d514610297578063f0dcb15c146102b3576100cf565b806385ecbe72146101cd578063877920f9146101fe57806395f59fe11461021a576100cf565b806303daa00f146100d45780632e7a8662146100f05780633a0febad14610120578063542a832e1461013c5780635f712c211461016c578063762f66191461019d575b600080fd5b6100ee60048036036100e9919081019061225c565b6102cf565b005b61010a60048036036101059190810190612096565b6105b9565b60405161011791906127ca565b60405180910390f35b61013a60048036036101359190810190612096565b61073b565b005b61015660048036036101519190810190612055565b6109bf565b6040516101639190612778565b60405180910390f35b610186600480360361018191908101906121c5565b610b62565b60405161019492919061279a565b60405180910390f35b6101b760048036036101b29190810190612055565b610e79565b6040516101c49190612778565b60405180910390f35b6101e760048036036101e29190810190612096565b61101c565b6040516101f59291906127ec565b60405180910390f35b6102186004803603610213919081019061225c565b611263565b005b610234600480360361022f91908101906121c5565b6114eb565b005b610250600480360361024b9190810190612096565b6115fa565b60405161025d9190612778565b60405180910390f35b610280600480360361027b9190810190612096565b6117c3565b60405161028e9291906128bc565b60405180910390f35b6102b160048036036102ac9190810190612102565b6119e8565b005b6102cd60048036036102c89190810190612055565b611b92565b005b600080826040516102e0919061274a565b90815260200160405180910390209050600073ffffffffffffffffffffffffffffffffffffffff168160000160009054906101000a900473ffffffffffffffffffffffffffffffffffffffff1673ffffffffffffffffffffffffffffffffffffffff161415610384576040517f08c379a000000000000000000000000000000000000000000000000000000000815260040161037b9061289c565b60405180910390fd5b3373ffffffffffffffffffffffffffffffffffffffff168160000160009054906101000a900473ffffffffffffffffffffffffffffffffffffffff1673ffffffffffffffffffffffffffffffffffffffff16146103e057600080fd5b6104cd8382600101805480602002602001604051908101604052809291908181526020016000905b828210156104c4578382906000526020600020018054600181600116156101000203166002900480601f0160208091040260200160405190810160405280929190818152602001828054600181600116156101000203166002900480156104b05780601f10610485576101008083540402835291602001916104b0565b820191906000526020600020905b81548152906001019060200180831161049357829003601f168201915b505050505081526020019060010190610408565b50505050611ca5565b61050c576040517f08c379a00000000000000000000000000000000000000000000000000000000081526004016105039061283c565b60405180910390fd5b60008160020184604051610520919061274a565b9081526020016040518091039020905080600001604051806040016040528088815260200187815250908060018154018082558091505090600182039060005260206000209060020201600090919290919091506000820151816000019080519060200190610590929190611d40565b5060208201518160010190805190602001906105ad929190611d40565b50505050505050505050565b6060600080836040516105cc919061274a565b90815260200160405180910390209050600073ffffffffffffffffffffffffffffffffffffffff168160000160009054906101000a900473ffffffffffffffffffffffffffffffffffffffff1673ffffffffffffffffffffffffffffffffffffffff161415610670576040517f08c379a00000000000000000000000000000000000000000000000000000000081526004016106679061289c565b60405180910390fd5b60008160040185604051610684919061274a565b90815260200160405180910390209050806000018054600181600116156101000203166002900480601f01602080910402602001604051908101604052809291908181526020018280546001816001161561010002031660029004801561072c5780601f106107015761010080835404028352916020019161072c565b820191906000526020600020905b81548152906001019060200180831161070f57829003601f168201915b50505050509250505092915050565b6000808260405161074c919061274a565b90815260200160405180910390209050600073ffffffffffffffffffffffffffffffffffffffff168160000160009054906101000a900473ffffffffffffffffffffffffffffffffffffffff1673ffffffffffffffffffffffffffffffffffffffff1614156107f0576040517f08c379a00000000000000000000000000000000000000000000000000000000081526004016107e79061289c565b60405180910390fd5b3373ffffffffffffffffffffffffffffffffffffffff168160000160009054906101000a900473ffffffffffffffffffffffffffffffffffffffff1673ffffffffffffffffffffffffffffffffffffffff161461084c57600080fd5b6109398382600101805480602002602001604051908101604052809291908181526020016000905b82821015610930578382906000526020600020018054600181600116156101000203166002900480601f01602080910402602001604051908101604052809291908181526020018280546001816001161561010002031660029004801561091c5780601f106108f15761010080835404028352916020019161091c565b820191906000526020600020905b8154815290600101906020018083116108ff57829003601f168201915b505050505081526020019060010190610874565b50505050611ca5565b15610979576040517f08c379a00000000000000000000000000000000000000000000000000000000081526004016109709061285c565b60405180910390fd5b806001018390806001815401808255809150509060018203906000526020600020016000909192909190915090805190602001906109b8929190611dc0565b5050505050565b6060600080836040516109d2919061274a565b90815260200160405180910390209050600073ffffffffffffffffffffffffffffffffffffffff168160000160009054906101000a900473ffffffffffffffffffffffffffffffffffffffff1673ffffffffffffffffffffffffffffffffffffffff161415610a76576040517f08c379a0000000000000000000000000000000000000000000000000000000008152600401610a6d9061289c565b60405180910390fd5b80600101805480602002602001604051908101604052809291908181526020016000905b82821015610b56578382906000526020600020018054600181600116156101000203166002900480601f016020809104026020016040519081016040528092919081815260200182805460018160011615610100020316600290048015610b425780601f10610b1757610100808354040283529160200191610b42565b820191906000526020600020905b815481529060010190602001808311610b2557829003601f168201915b505050505081526020019060010190610a9a565b50505050915050919050565b6000606060008084604051610b77919061274a565b90815260200160405180910390209050600073ffffffffffffffffffffffffffffffffffffffff168160000160009054906101000a900473ffffffffffffffffffffffffffffffffffffffff1673ffffffffffffffffffffffffffffffffffffffff161415610c1b576040517f08c379a0000000000000000000000000000000000000000000000000000000008152600401610c129061289c565b60405180910390fd5b60008090505b8160010180549050811015610e5857600082600201836001018381548110610c4557fe5b90600052602060002001604051610c5c9190612761565b9081526020016040518091039020905060008090505b8160010180549050811015610d5a578880519060200120826001018281548110610c9857fe5b9060005260206000209060020201600001604051610cb6919061271c565b60405180910390201415610d4d578780519060200120826001018281548110610cdb57fe5b9060005260206000209060020201600101604051610cf9919061271c565b60405180910390201415610d4c5760016040518060400160405280600781526020017f73747564656e74000000000000000000000000000000000000000000000000008152509550955050505050610e71565b5b8080600101915050610c72565b5060008090505b8160000180549050811015610e49578880519060200120826000018281548110610d8757fe5b9060005260206000209060020201600001604051610da5919061271c565b60405180910390201415610e3c578780519060200120826000018281548110610dca57fe5b9060005260206000209060020201600101604051610de8919061271c565b60405180910390201415610e3b5760016040518060400160405280600781526020017f74656163686572000000000000000000000000000000000000000000000000008152509550955050505050610e71565b5b8080600101915050610d61565b50508080600101915050610c21565b5060006040518060200160405280600081525092509250505b935093915050565b606060008083604051610e8c919061274a565b90815260200160405180910390209050600073ffffffffffffffffffffffffffffffffffffffff168160000160009054906101000a900473ffffffffffffffffffffffffffffffffffffffff1673ffffffffffffffffffffffffffffffffffffffff161415610f30576040517f08c379a0000000000000000000000000000000000000000000000000000000008152600401610f279061289c565b60405180910390fd5b80600301805480602002602001604051908101604052809291908181526020016000905b82821015611010578382906000526020600020018054600181600116156101000203166002900480601f016020809104026020016040519081016040528092919081815260200182805460018160011615610100020316600290048015610ffc5780601f10610fd157610100808354040283529160200191610ffc565b820191906000526020600020905b815481529060010190602001808311610fdf57829003601f168201915b505050505081526020019060010190610f54565b50505050915050919050565b6060600080600084604051611031919061274a565b90815260200160405180910390209050600073ffffffffffffffffffffffffffffffffffffffff168160000160009054906101000a900473ffffffffffffffffffffffffffffffffffffffff1673ffffffffffffffffffffffffffffffffffffffff1614156110d5576040517f08c379a00000000000000000000000000000000000000000000000000000000081526004016110cc9061289c565b60405180910390fd5b600081600401866040516110e9919061274a565b908152602001604051809103902090506000809050606060008090505b836001018054905081101561120e57606084600101828154811061112657fe5b906000526020600020018054600181600116156101000203166002900480601f0160208091040260200160405190810160405280929190818152602001828054600181600116156101000203166002900480156111c45780601f10611199576101008083540402835291602001916111c4565b820191906000526020600020905b8154815290600101906020018083116111a757829003601f168201915b50505050509050600085600201826040516111df919061274a565b9081526020016040518091039020549050848111156111ff578094508193505b50508080600101915050611106565b5060008211611252576040517f08c379a00000000000000000000000000000000000000000000000000000000081526004016112499061287c565b60405180910390fd5b808295509550505050509250929050565b60008082604051611274919061274a565b90815260200160405180910390209050600073ffffffffffffffffffffffffffffffffffffffff168160000160009054906101000a900473ffffffffffffffffffffffffffffffffffffffff1673ffffffffffffffffffffffffffffffffffffffff161415611318576040517f08c379a000000000000000000000000000000000000000000000000000000000815260040161130f9061289c565b60405180910390fd5b6114058382600101805480602002602001604051908101604052809291908181526020016000905b828210156113fc578382906000526020600020018054600181600116156101000203166002900480601f0160208091040260200160405190810160405280929190818152602001828054600181600116156101000203166002900480156113e85780601f106113bd576101008083540402835291602001916113e8565b820191906000526020600020905b8154815290600101906020018083116113cb57829003601f168201915b505050505081526020019060010190611340565b50505050611ca5565b611444576040517f08c379a000000000000000000000000000000000000000000000000000000000815260040161143b9061283c565b60405180910390fd5b8060020183604051611456919061274a565b90815260200160405180910390206001016040518060400160405280878152602001868152509080600181540180825580915050906001820390600052602060002090600202016000909192909190915060008201518160000190805190602001906114c3929190611d40565b5060208201518160010190805190602001906114e0929190611d40565b505050505050505050565b600080826040516114fc919061274a565b90815260200160405180910390209050600073ffffffffffffffffffffffffffffffffffffffff168160000160009054906101000a900473ffffffffffffffffffffffffffffffffffffffff1673ffffffffffffffffffffffffffffffffffffffff1614156115a0576040517f08c379a00000000000000000000000000000000000000000000000000000000081526004016115979061289c565b60405180910390fd5b600081600401856040516115b4919061274a565b90815260200160405180910390209050600181600201856040516115d8919061274a565b9081526020016040518091039020600082825401925050819055505050505050565b60606000808360405161160d919061274a565b90815260200160405180910390209050600073ffffffffffffffffffffffffffffffffffffffff168160000160009054906101000a900473ffffffffffffffffffffffffffffffffffffffff1673ffffffffffffffffffffffffffffffffffffffff1614156116b1576040517f08c379a00000000000000000000000000000000000000000000000000000000081526004016116a89061289c565b60405180910390fd5b600081600401856040516116c5919061274a565b9081526020016040518091039020905080600101805480602002602001604051908101604052809291908181526020016000905b828210156117b5578382906000526020600020018054600181600116156101000203166002900480601f0160208091040260200160405190810160405280929190818152602001828054600181600116156101000203166002900480156117a15780601f10611776576101008083540402835291602001916117a1565b820191906000526020600020905b81548152906001019060200180831161178457829003601f168201915b5050505050815260200190600101906116f9565b505050509250505092915050565b600080600080846040516117d7919061274a565b90815260200160405180910390209050600081600201866040516117fb919061274a565b90815260200160405180910390209050600073ffffffffffffffffffffffffffffffffffffffff168260000160009054906101000a900473ffffffffffffffffffffffffffffffffffffffff1673ffffffffffffffffffffffffffffffffffffffff16141561189f576040517f08c379a00000000000000000000000000000000000000000000000000000000081526004016118969061289c565b60405180910390fd5b61198c8683600101805480602002602001604051908101604052809291908181526020016000905b82821015611983578382906000526020600020018054600181600116156101000203166002900480601f01602080910402602001604051908101604052809291908181526020018280546001816001161561010002031660029004801561196f5780601f106119445761010080835404028352916020019161196f565b820191906000526020600020905b81548152906001019060200180831161195257829003601f168201915b5050505050815260200190600101906118c7565b50505050611ca5565b6119cb576040517f08c379a00000000000000000000000000000000000000000000000000000000081526004016119c29061283c565b60405180910390fd5b806000018054905081600101805490509350935050509250929050565b600080826040516119f9919061274a565b90815260200160405180910390209050600073ffffffffffffffffffffffffffffffffffffffff168160000160009054906101000a900473ffffffffffffffffffffffffffffffffffffffff1673ffffffffffffffffffffffffffffffffffffffff161415611a9d576040517f08c379a0000000000000000000000000000000000000000000000000000000008152600401611a949061289c565b60405180910390fd5b60008160040186604051611ab1919061274a565b9081526020016040518091039020905081600301869080600181540180825580915050906001820390600052602060002001600090919290919091509080519060200190611b00929190611dc0565b505084816000019080519060200190611b1a929190611dc0565b5083816001019080519060200190611b33929190611e40565b5060008090505b8451811015611b8957600082600201868381518110611b5557fe5b6020026020010151604051611b6a9190612733565b9081526020016040518091039020819055508080600101915050611b3a565b50505050505050565b600073ffffffffffffffffffffffffffffffffffffffff16600082604051611bba919061274a565b908152602001604051809103902060000160009054906101000a900473ffffffffffffffffffffffffffffffffffffffff1673ffffffffffffffffffffffffffffffffffffffff1614611c42576040517f08c379a0000000000000000000000000000000000000000000000000000000008152600401611c399061281c565b60405180910390fd5b33600082604051611c53919061274a565b908152602001604051809103902060000160006101000a81548173ffffffffffffffffffffffffffffffffffffffff021916908373ffffffffffffffffffffffffffffffffffffffff16021790555050565b600080600090505b8251811015611d345783604051602001611cc7919061274a565b60405160208183030381529060405280519060200120838281518110611ce957fe5b6020026020010151604051602001611d019190612733565b604051602081830303815290604052805190602001201415611d27576001915050611d3a565b8080600101915050611cad565b50600090505b92915050565b828054600181600116156101000203166002900490600052602060002090601f016020900481019282601f10611d8157805160ff1916838001178555611daf565b82800160010185558215611daf579182015b82811115611dae578251825591602001919060010190611d93565b5b509050611dbc9190611ea0565b5090565b828054600181600116156101000203166002900490600052602060002090601f016020900481019282601f10611e0157805160ff1916838001178555611e2f565b82800160010185558215611e2f579182015b82811115611e2e578251825591602001919060010190611e13565b5b509050611e3c9190611ea0565b5090565b828054828255906000526020600020908101928215611e8f579160200282015b82811115611e8e578251829080519060200190611e7e929190611d40565b5091602001919060010190611e60565b5b509050611e9c9190611ec5565b5090565b611ec291905b80821115611ebe576000816000905550600101611ea6565b5090565b90565b611eee91905b80821115611eea5760008181611ee19190611ef1565b50600101611ecb565b5090565b90565b50805460018160011615610100020316600290046000825580601f10611f175750611f36565b601f016020900490600052602060002090810190611f359190611ea0565b5b50565b600082601f830112611f4a57600080fd5b8135611f5d611f5882612912565b6128e5565b9150818183526020840193506020810190508360005b83811015611fa35781358601611f898882611fad565b845260208401935060208301925050600181019050611f73565b5050505092915050565b600082601f830112611fbe57600080fd5b8135611fd1611fcc8261293a565b6128e5565b91508082526020830160208301858383011115611fed57600080fd5b611ff8838284612a59565b50505092915050565b600082601f83011261201257600080fd5b813561202561202082612966565b6128e5565b9150808252602083016020830185838301111561204157600080fd5b61204c838284612a59565b50505092915050565b60006020828403121561206757600080fd5b600082013567ffffffffffffffff81111561208157600080fd5b61208d84828501612001565b91505092915050565b600080604083850312156120a957600080fd5b600083013567ffffffffffffffff8111156120c357600080fd5b6120cf85828601612001565b925050602083013567ffffffffffffffff8111156120ec57600080fd5b6120f885828601612001565b9150509250929050565b6000806000806080858703121561211857600080fd5b600085013567ffffffffffffffff81111561213257600080fd5b61213e87828801612001565b945050602085013567ffffffffffffffff81111561215b57600080fd5b61216787828801612001565b935050604085013567ffffffffffffffff81111561218457600080fd5b61219087828801611f39565b925050606085013567ffffffffffffffff8111156121ad57600080fd5b6121b987828801612001565b91505092959194509250565b6000806000606084860312156121da57600080fd5b600084013567ffffffffffffffff8111156121f457600080fd5b61220086828701612001565b935050602084013567ffffffffffffffff81111561221d57600080fd5b61222986828701612001565b925050604084013567ffffffffffffffff81111561224657600080fd5b61225286828701612001565b9150509250925092565b6000806000806080858703121561227257600080fd5b600085013567ffffffffffffffff81111561228c57600080fd5b61229887828801612001565b945050602085013567ffffffffffffffff8111156122b557600080fd5b6122c187828801612001565b935050604085013567ffffffffffffffff8111156122de57600080fd5b6122ea87828801612001565b925050606085013567ffffffffffffffff81111561230757600080fd5b61231387828801612001565b91505092959194509250565b600061232b83836124af565b905092915050565b600061233e826129cc565b61234881856129fa565b93508360208202850161235a85612992565b8060005b858110156123965784840389528151612377858261231f565b9450612382836129ed565b925060208a0199505060018101905061235e565b50829750879550505050505092915050565b6123b181612a43565b82525050565b6000815460018116600081146123d457600181146123f95761243d565b607f60028304166123e58187612a0b565b955060ff198316865280860193505061243d565b600282046124078187612a0b565b9550612412856129a2565b60005b8281101561243457815481890152600182019150602081019050612415565b82880195505050505b505092915050565b6000612450826129e2565b61245a8185612a27565b935061246a818560208601612a68565b61247381612a9b565b840191505092915050565b6000612489826129e2565b6124938185612a38565b93506124a3818560208601612a68565b80840191505092915050565b60006124ba826129d7565b6124c48185612a16565b93506124d4818560208601612a68565b6124dd81612a9b565b840191505092915050565b60006124f3826129d7565b6124fd8185612a38565b935061250d818560208601612a68565b80840191505092915050565b600081546001811660008114612536576001811461255b5761259f565b607f60028304166125478187612a38565b955060ff198316865280860193505061259f565b600282046125698187612a38565b9550612574856129b7565b60005b8281101561259657815481890152600182019150602081019050612577565b82880195505050505b505092915050565b60006125b4603083612a27565b91507f54686973206164647265737320616c7265616479206861732061207363686f6f60008301527f6c2061737369676e656420746f206974000000000000000000000000000000006020830152604082019050919050565b600061261a601483612a27565b91507f436c61737320646f6573206e6f742065786973740000000000000000000000006000830152602082019050919050565b600061265a601483612a27565b91507f436c61737320616c7265616479206578697374730000000000000000000000006000830152602082019050919050565b600061269a601383612a27565b91507f416c6c2076616c75657320617265207a65726f000000000000000000000000006000830152602082019050919050565b60006126da601583612a27565b91507f5363686f6f6c20646f6573206e6f7420657869737400000000000000000000006000830152602082019050919050565b61271681612a4f565b82525050565b600061272882846123b7565b915081905092915050565b600061273f82846124e8565b915081905092915050565b6000612756828461247e565b915081905092915050565b600061276d8284612519565b915081905092915050565b600060208201905081810360008301526127928184612333565b905092915050565b60006040820190506127af60008301856123a8565b81810360208301526127c18184612445565b90509392505050565b600060208201905081810360008301526127e48184612445565b905092915050565b600060408201905081810360008301526128068185612445565b9050612815602083018461270d565b9392505050565b60006020820190508181036000830152612835816125a7565b9050919050565b600060208201905081810360008301526128558161260d565b9050919050565b600060208201905081810360008301526128758161264d565b9050919050565b600060208201905081810360008301526128958161268d565b9050919050565b600060208201905081810360008301526128b5816126cd565b9050919050565b60006040820190506128d1600083018561270d565b6128de602083018461270d565b9392505050565b6000604051905081810181811067ffffffffffffffff8211171561290857600080fd5b8060405250919050565b600067ffffffffffffffff82111561292957600080fd5b602082029050602081019050919050565b600067ffffffffffffffff82111561295157600080fd5b601f19601f8301169050602081019050919050565b600067ffffffffffffffff82111561297d57600080fd5b601f19601f8301169050602081019050919050565b6000819050602082019050919050565b60008190508160005260206000209050919050565b60008190508160005260206000209050919050565b600081519050919050565b600081519050919050565b600081519050919050565b6000602082019050919050565b600082825260208201905092915050565b600081905092915050565b600082825260208201905092915050565b600082825260208201905092915050565b600081905092915050565b60008115159050919050565b6000819050919050565b82818337600083830152505050565b60005b83811015612a86578082015181840152602081019050612a6b565b83811115612a95576000848401525b50505050565b6000601f19601f830116905091905056fea365627a7a72315820b68af1eba4b0cd3389a9f43c834b6ecef26368b77686b2747ed906c8d6d60f246c6578706572696d656e74616cf564736f6c63430005100040",
  "source": "pragma solidity ^0.5.16;\npragma experimental ABIEncoderV2;\n\ncontract School {\n\n    struct Teacher {\n        string name;\n        string password;\n    }\n\n    struct Student {\n        string name;\n        string password;\n    }\n\n    struct Class {\n        Teacher[] teachers;\n        Student[] students;\n    }\n\n    struct SchoolData {\n        address principal;\n\n        string[] class_names; // keys for classes\n        mapping(string => Class) classes;\n\n        string[] election_keys;\n        mapping(string => Election) elections;\n    }\n\n    struct Election {\n        string name;\n        string[] keys;\n        mapping(string => uint256) electionResults;\n    }\n\n    mapping(string => SchoolData) private schools;  // Mapping to store school data (Principal is owner)\n\n\n    function isElementInArray(string memory target, string[] memory array) private pure returns (bool) {\n        for (uint256 i = 0; i < array.length; i++) {\n            if (keccak256(abi.encodePacked(array[i])) == keccak256(abi.encodePacked(target))) {\n                return true;\n            }\n        }\n        return false;\n    }\n\n\n    // SCHOOL\n    function createSchool(string memory _name) public {\n        // Check if school already exists ==> Nein, implizit nur eine Schule pro Adresse (Principal) erlaubt!\n        require(schools[_name].principal == address(0), \"This address already has a school assigned to it\");\n        // Set the caller's address as the principal\n        schools[_name].principal = msg.sender;\n    }\n\n    function logIn(string memory username, string memory password, string memory _school_name) public view returns (bool, string memory){\n        SchoolData storage school = schools[_school_name];\n        require(school.principal != address(0), \"School does not exist\");\n        for(uint i = 0; i < school.class_names.length; i++){\n            Class storage class = school.classes[school.class_names[i]];\n            for (uint j = 0; j < class.students.length; j++){\n                if (keccak256(bytes(class.students[j].name)) == keccak256(bytes(username))) {\n                    if (keccak256(bytes(class.students[j].password)) == keccak256(bytes(password))) return (true, \"student\");\n                }\n            }\n            for (uint j = 0; j < class.teachers.length; j++){\n                if (keccak256(bytes(class.teachers[j].name)) == keccak256(bytes(username))) {\n                    if (keccak256(bytes(class.teachers[j].password)) == keccak256(bytes(password))) return (true, \"teacher\");\n                }\n            }\n        }\n        return (false, \"\");\n    }\n\n\n    // CLASS\n    function createClass(string memory _name, string memory _school_name) public {\n        SchoolData storage school = schools[_school_name];\n        require(school.principal != address(0), \"School does not exist\");\n        require(school.principal == msg.sender); // Principal function\n\n        require(!isElementInArray(_name, school.class_names), \"Class already exists\");\n\n        school.class_names.push(_name);\n        // Set the class name\n    }\n\n    function addTeacherToClass(string memory _teacherName, string memory _password, string memory class_name, string memory _school_name) public {\n        SchoolData storage school = schools[_school_name];\n        require(school.principal != address(0), \"School does not exist\");\n        require(school.principal == msg.sender); // Principal function\n        // Check if the school exists\n\n        require(isElementInArray(class_name, school.class_names), \"Class does not exist\");\n        // Check if class exists\n        Class storage class = school.classes[class_name];\n        class.teachers.push(Teacher(_teacherName, _password));\n        // Add teacher to the class\n    }\n\n    function addStudentToClass(string memory _studentName, string memory _password, string memory class_name, string memory _school_name) public {\n        SchoolData storage school = schools[_school_name];\n        require(school.principal != address(0), \"School does not exist\");\n        // Check if the school exists\n        require(isElementInArray(class_name, school.class_names), \"Class does not exist\");\n        // Check if class exists\n        school.classes[class_name].students.push(Student(_studentName, _password));\n        // Add student to the class\n    }\n\n    function getClassDetails(string memory class_name, string memory _school_name) public view returns (uint256, uint256) {\n        SchoolData storage school = schools[_school_name];\n        Class storage class = school.classes[class_name];\n        require(school.principal != address(0), \"School does not exist\");\n        // Check if the school exists\n        require(isElementInArray(class_name, school.class_names), \"Class does not exist\");\n        // Check if class exists\n        return (class.teachers.length, class.students.length);\n        // Get the class details (name, number of teachers, number of students)\n    }\n\n    function getAllClasses(string memory _school_name) public view returns (string[] memory){\n        SchoolData storage school = schools[_school_name];\n        require(school.principal != address(0), \"School does not exist\");\n        return school.class_names;\n    }\n\n\n    // ELECTION\n    function createElection(string memory _electionId, string memory _name, string[] memory _options, string memory _school_name) public {\n        SchoolData storage school = schools[_school_name];\n        require(school.principal != address(0), \"School does not exist\");\n        // Check if the school exists\n        Election storage election = school.elections[_electionId];\n        // TODO check if election exists\n        school.election_keys.push(_electionId);\n        election.name = _name;\n        election.keys = _options;\n        // add options to election\n        for (uint i=0; i< _options.length; i++){\n            election.electionResults[_options[i]] = 0;\n        }\n    }\n\n    function getElectionName(string memory electionID, string memory _school_name) public view returns (string memory){\n        SchoolData storage school = schools[_school_name];\n        require(school.principal != address(0), \"School does not exist\");\n        Election storage election = school.elections[electionID];\n        return election.name;\n    }\n\n    function vote(string memory electionID, string memory option, string memory _school_name) public {\n        SchoolData storage school = schools[_school_name];\n        require(school.principal != address(0), \"School does not exist\");\n        Election storage election = school.elections[electionID];\n        // TODO check if election exists\n        // TODO check if option exists\n        election.electionResults[option] += 1;\n    }\n\n    function getAllElectionIDs(string memory _school_name) public view returns (string[] memory) {\n        SchoolData storage school = schools[_school_name];\n        require(school.principal != address(0), \"School does not exist\");\n        return school.election_keys;\n    }\n\n    function getOptionsFromElection(string memory electionID, string memory _school_name) public view returns (string[] memory) {\n        SchoolData storage school = schools[_school_name];\n        require(school.principal != address(0), \"School does not exist\");\n        Election storage election = school.elections[electionID];\n\n        return election.keys;\n    }\n\n    function getWinner(string memory electionID, string memory _school_name) public view returns (string memory, uint256) {\n        SchoolData storage school = schools[_school_name];\n        require(school.principal != address(0), \"School does not exist\");\n        Election storage election = school.elections[electionID];\n        uint256 maxResult = 0;\n        string memory maxKey;\n\n        // Iterate over the mapping\n        for (uint256 i_key = 0; i_key < election.keys.length; i_key++) {\n            string memory key = election.keys[i_key];\n            uint256 value = election.electionResults[key];\n\n            if (value > maxResult) {\n                maxResult = value;\n                maxKey = key;\n            }\n        }\n\n        require(maxResult > 0, \"All values are zero\");\n\n        return (maxKey, maxResult);\n    }\n\n}\n",
  "sourcePath": "/Users/lukasscholz/repositorys/decentralizeddemocraticrepublic/contracts/Schools.sol",
  "compiler": {
    "name": "solc",
    "version": "0.5.16+commit.9c3226ce.Emscripten.clang"
  },
  "schemaVersion": "3.4.13",
  "updatedAt": "2023-07-01T08:54:03.737Z",
  "networkType": "ethereum",
  "devdoc": {
    "methods": {}
  },
  "userdoc": {
    "methods": {}
  }
}