{
  "contractName": "School",
  "abi": [
    {
      "constant": true,
      "inputs": [
        {
          "internalType": "uint256",
          "name": "",
          "type": "uint256"
        }
      ],
      "name": "elections",
      "outputs": [
        {
          "internalType": "string",
          "name": "name",
          "type": "string"
        },
        {
          "internalType": "uint256",
          "name": "voteCount",
          "type": "uint256"
        }
      ],
      "payable": false,
      "stateMutability": "view",
      "type": "function"
    },
    {
      "constant": true,
      "inputs": [
        {
          "internalType": "address",
          "name": "",
          "type": "address"
        }
      ],
      "name": "schools",
      "outputs": [
        {
          "internalType": "string",
          "name": "name",
          "type": "string"
        },
        {
          "internalType": "address",
          "name": "principal",
          "type": "address"
        }
      ],
      "payable": false,
      "stateMutability": "view",
      "type": "function"
    },
    {
      "constant": false,
      "inputs": [
        {
          "internalType": "string",
          "name": "_name",
          "type": "string"
        }
      ],
      "name": "createSchool",
      "outputs": [],
      "payable": false,
      "stateMutability": "nonpayable",
      "type": "function"
    },
    {
      "constant": false,
      "inputs": [
        {
          "internalType": "uint256",
          "name": "_classId",
          "type": "uint256"
        },
        {
          "internalType": "string",
          "name": "_name",
          "type": "string"
        }
      ],
      "name": "createClass",
      "outputs": [],
      "payable": false,
      "stateMutability": "nonpayable",
      "type": "function"
    },
    {
      "constant": false,
      "inputs": [
        {
          "internalType": "uint256",
          "name": "_classId",
          "type": "uint256"
        },
        {
          "internalType": "string",
          "name": "_teacherName",
          "type": "string"
        },
        {
          "internalType": "uint256",
          "name": "_teacherId",
          "type": "uint256"
        }
      ],
      "name": "addTeacherToClass",
      "outputs": [],
      "payable": false,
      "stateMutability": "nonpayable",
      "type": "function"
    },
    {
      "constant": false,
      "inputs": [
        {
          "internalType": "uint256",
          "name": "_classId",
          "type": "uint256"
        },
        {
          "internalType": "string",
          "name": "_studentName",
          "type": "string"
        },
        {
          "internalType": "uint256",
          "name": "_studentId",
          "type": "uint256"
        },
        {
          "internalType": "string",
          "name": "_password",
          "type": "string"
        }
      ],
      "name": "addStudentToClass",
      "outputs": [],
      "payable": false,
      "stateMutability": "nonpayable",
      "type": "function"
    },
    {
      "constant": true,
      "inputs": [],
      "name": "getSchoolName",
      "outputs": [
        {
          "internalType": "string",
          "name": "",
          "type": "string"
        }
      ],
      "payable": false,
      "stateMutability": "view",
      "type": "function"
    },
    {
      "constant": true,
      "inputs": [
        {
          "internalType": "uint256",
          "name": "_classId",
          "type": "uint256"
        }
      ],
      "name": "getClassDetails",
      "outputs": [
        {
          "internalType": "string",
          "name": "",
          "type": "string"
        },
        {
          "internalType": "uint256",
          "name": "",
          "type": "uint256"
        },
        {
          "internalType": "uint256",
          "name": "",
          "type": "uint256"
        }
      ],
      "payable": false,
      "stateMutability": "view",
      "type": "function"
    },
    {
      "constant": false,
      "inputs": [
        {
          "internalType": "string",
          "name": "electionName",
          "type": "string"
        },
        {
          "internalType": "string[]",
          "name": "electionOptions",
          "type": "string[]"
        }
      ],
      "name": "createElection",
      "outputs": [],
      "payable": false,
      "stateMutability": "nonpayable",
      "type": "function"
    },
    {
      "constant": false,
      "inputs": [
        {
          "internalType": "uint256",
          "name": "electionID",
          "type": "uint256"
        }
      ],
      "name": "vote",
      "outputs": [],
      "payable": false,
      "stateMutability": "nonpayable",
      "type": "function"
    },
    {
      "constant": true,
      "inputs": [
        {
          "internalType": "uint256",
          "name": "electionID",
          "type": "uint256"
        }
      ],
      "name": "getVotes",
      "outputs": [
        {
          "internalType": "uint256",
          "name": "",
          "type": "uint256"
        }
      ],
      "payable": false,
      "stateMutability": "view",
      "type": "function"
    }
  ],
  "bytecode": "0x608060405234801561001057600080fd5b5061179b806100206000396000f3fe608060405234801561001057600080fd5b50600436106100a95760003560e01c8063727790fa11610071578063727790fa14610151578063921c4c3614610182578063e79be3261461019e578063edb8240a146101d0578063f0dcb15c146101ec578063ff98109914610208576100a9565b80630121b93f146100ae5780631beb119b146100ca578063349813b2146100e65780634fc555c3146101025780635e6fef0114610120575b600080fd5b6100c860048036036100c39190810190611165565b610238565b005b6100e460048036036100df9190810190611249565b610266565b005b61010060048036036100fb91908101906110f9565b610447565b005b61010a6104c1565b604051610117919061146c565b60405180910390f35b61013a60048036036101359190810190611165565b6105a3565b6040516101489291906114fc565b60405180910390f35b61016b6004803603610166919081019061108f565b61065f565b6040516101799291906114cc565b60405180910390f35b61019c6004803603610197919081019061118e565b61073b565b005b6101b860048036036101b39190810190611165565b6108a2565b6040516101c79392919061148e565b60405180910390f35b6101ea60048036036101e591908101906111e2565b6109c2565b005b610206600480360361020191908101906110b8565b610b7f565b005b610222600480360361021d9190810190611165565b610d2b565b60405161022f91906115ac565b60405180910390f35b6000806000600181526020019081526020016000209050600181600201600082825401925050819055505050565b6000600160003373ffffffffffffffffffffffffffffffffffffffff1673ffffffffffffffffffffffffffffffffffffffff1681526020019081526020016000209050600073ffffffffffffffffffffffffffffffffffffffff168160010160009054906101000a900473ffffffffffffffffffffffffffffffffffffffff1673ffffffffffffffffffffffffffffffffffffffff16141561033d576040517f08c379a00000000000000000000000000000000000000000000000000000000081526004016103349061158c565b60405180910390fd5b6000816002016000878152602001908152602001600020600101805490501161039b576040517f08c379a00000000000000000000000000000000000000000000000000000000081526004016103929061152c565b60405180910390fd5b806002016000868152602001908152602001600020600201604051806060016040528086815260200184815260200185815250908060018154018082558091505090600182039060005260206000209060030201600090919290919091506000820151816000019080519060200190610415929190610d50565b506020820151816001019080519060200190610432929190610d50565b50604082015181600201555050505050505050565b60405180606001604052808381526020018281526020016000815250600080600181526020019081526020016000206000820151816000019080519060200190610492929190610d50565b5060208201518160010190805190602001906104af929190610dd0565b50604082015181600201559050505050565b6060600160003373ffffffffffffffffffffffffffffffffffffffff1673ffffffffffffffffffffffffffffffffffffffff1681526020019081526020016000206000018054600181600116156101000203166002900480601f0160208091040260200160405190810160405280929190818152602001828054600181600116156101000203166002900480156105995780601f1061056e57610100808354040283529160200191610599565b820191906000526020600020905b81548152906001019060200180831161057c57829003601f168201915b5050505050905090565b6000602052806000526040600020600091509050806000018054600181600116156101000203166002900480601f01602080910402602001604051908101604052809291908181526020018280546001816001161561010002031660029004801561064f5780601f106106245761010080835404028352916020019161064f565b820191906000526020600020905b81548152906001019060200180831161063257829003601f168201915b5050505050908060020154905082565b6001602052806000526040600020600091509050806000018054600181600116156101000203166002900480601f01602080910402602001604051908101604052809291908181526020018280546001816001161561010002031660029004801561070b5780601f106106e05761010080835404028352916020019161070b565b820191906000526020600020905b8154815290600101906020018083116106ee57829003601f168201915b5050505050908060010160009054906101000a900473ffffffffffffffffffffffffffffffffffffffff16905082565b6000600160003373ffffffffffffffffffffffffffffffffffffffff1673ffffffffffffffffffffffffffffffffffffffff1681526020019081526020016000209050600073ffffffffffffffffffffffffffffffffffffffff168160010160009054906101000a900473ffffffffffffffffffffffffffffffffffffffff1673ffffffffffffffffffffffffffffffffffffffff161415610812576040517f08c379a00000000000000000000000000000000000000000000000000000000081526004016108099061158c565b60405180910390fd5b60008160020160008581526020019081526020016000206001018054905014610870576040517f08c379a00000000000000000000000000000000000000000000000000000000081526004016108679061156c565b60405180910390fd5b81816002016000858152602001908152602001600020600001908051906020019061089c929190610e30565b50505050565b60606000806000600160003373ffffffffffffffffffffffffffffffffffffffff1673ffffffffffffffffffffffffffffffffffffffff1681526020019081526020016000209050600081600201600087815260200190815260200160002090508060000181600101805490508260020180549050828054600181600116156101000203166002900480601f0160208091040260200160405190810160405280929190818152602001828054600181600116156101000203166002900480156109ac5780601f10610981576101008083540402835291602001916109ac565b820191906000526020600020905b81548152906001019060200180831161098f57829003601f168201915b5050505050925094509450945050509193909250565b6000600160003373ffffffffffffffffffffffffffffffffffffffff1673ffffffffffffffffffffffffffffffffffffffff1681526020019081526020016000209050600073ffffffffffffffffffffffffffffffffffffffff168160010160009054906101000a900473ffffffffffffffffffffffffffffffffffffffff1673ffffffffffffffffffffffffffffffffffffffff161415610a99576040517f08c379a0000000000000000000000000000000000000000000000000000000008152600401610a909061158c565b60405180910390fd5b60008160020160008681526020019081526020016000206001018054905011610af7576040517f08c379a0000000000000000000000000000000000000000000000000000000008152600401610aee9061152c565b60405180910390fd5b806002016000858152602001908152602001600020600101604051806040016040528085815260200184815250908060018154018082558091505090600182039060005260206000209060020201600090919290919091506000820151816000019080519060200190610b6b929190610d50565b506020820151816001015550505050505050565b600073ffffffffffffffffffffffffffffffffffffffff16600160003373ffffffffffffffffffffffffffffffffffffffff1673ffffffffffffffffffffffffffffffffffffffff16815260200190815260200160002060010160009054906101000a900473ffffffffffffffffffffffffffffffffffffffff1673ffffffffffffffffffffffffffffffffffffffff1614610c50576040517f08c379a0000000000000000000000000000000000000000000000000000000008152600401610c479061154c565b60405180910390fd5b80600160003373ffffffffffffffffffffffffffffffffffffffff1673ffffffffffffffffffffffffffffffffffffffff1681526020019081526020016000206000019080519060200190610ca6929190610e30565b5033600160003373ffffffffffffffffffffffffffffffffffffffff1673ffffffffffffffffffffffffffffffffffffffff16815260200190815260200160002060010160006101000a81548173ffffffffffffffffffffffffffffffffffffffff021916908373ffffffffffffffffffffffffffffffffffffffff16021790555050565b6000806000806001815260200190815260200160002090508060020154915050919050565b828054600181600116156101000203166002900490600052602060002090601f016020900481019282601f10610d9157805160ff1916838001178555610dbf565b82800160010185558215610dbf579182015b82811115610dbe578251825591602001919060010190610da3565b5b509050610dcc9190610eb0565b5090565b828054828255906000526020600020908101928215610e1f579160200282015b82811115610e1e578251829080519060200190610e0e929190610d50565b5091602001919060010190610df0565b5b509050610e2c9190610ed5565b5090565b828054600181600116156101000203166002900490600052602060002090601f016020900481019282601f10610e7157805160ff1916838001178555610e9f565b82800160010185558215610e9f579182015b82811115610e9e578251825591602001919060010190610e83565b5b509050610eac9190610eb0565b5090565b610ed291905b80821115610ece576000816000905550600101610eb6565b5090565b90565b610efe91905b80821115610efa5760008181610ef19190610f01565b50600101610edb565b5090565b90565b50805460018160011615610100020316600290046000825580601f10610f275750610f46565b601f016020900490600052602060002090810190610f459190610eb0565b5b50565b600081359050610f588161172a565b92915050565b600082601f830112610f6f57600080fd5b8135610f82610f7d826115f4565b6115c7565b9150818183526020840193506020810190508360005b83811015610fc85781358601610fae8882610fd2565b845260208401935060208301925050600181019050610f98565b5050505092915050565b600082601f830112610fe357600080fd5b8135610ff6610ff18261161c565b6115c7565b9150808252602083016020830185838301111561101257600080fd5b61101d8382846116d7565b50505092915050565b600082601f83011261103757600080fd5b813561104a61104582611648565b6115c7565b9150808252602083016020830185838301111561106657600080fd5b6110718382846116d7565b50505092915050565b60008135905061108981611741565b92915050565b6000602082840312156110a157600080fd5b60006110af84828501610f49565b91505092915050565b6000602082840312156110ca57600080fd5b600082013567ffffffffffffffff8111156110e457600080fd5b6110f084828501611026565b91505092915050565b6000806040838503121561110c57600080fd5b600083013567ffffffffffffffff81111561112657600080fd5b61113285828601611026565b925050602083013567ffffffffffffffff81111561114f57600080fd5b61115b85828601610f5e565b9150509250929050565b60006020828403121561117757600080fd5b60006111858482850161107a565b91505092915050565b600080604083850312156111a157600080fd5b60006111af8582860161107a565b925050602083013567ffffffffffffffff8111156111cc57600080fd5b6111d885828601611026565b9150509250929050565b6000806000606084860312156111f757600080fd5b60006112058682870161107a565b935050602084013567ffffffffffffffff81111561122257600080fd5b61122e86828701611026565b925050604061123f8682870161107a565b9150509250925092565b6000806000806080858703121561125f57600080fd5b600061126d8782880161107a565b945050602085013567ffffffffffffffff81111561128a57600080fd5b61129687828801611026565b93505060406112a78782880161107a565b925050606085013567ffffffffffffffff8111156112c457600080fd5b6112d087828801611026565b91505092959194509250565b6112e58161169b565b82525050565b60006112f68261167f565b611300818561168a565b93506113108185602086016116e6565b61131981611719565b840191505092915050565b600061132f82611674565b611339818561168a565b93506113498185602086016116e6565b61135281611719565b840191505092915050565b600061136a60148361168a565b91507f436c61737320646f6573206e6f742065786973740000000000000000000000006000830152602082019050919050565b60006113aa60158361168a565b91507f5363686f6f6c20616c72656164792065786973747300000000000000000000006000830152602082019050919050565b60006113ea60148361168a565b91507f436c61737320616c7265616479206578697374730000000000000000000000006000830152602082019050919050565b600061142a60158361168a565b91507f5363686f6f6c20646f6573206e6f7420657869737400000000000000000000006000830152602082019050919050565b611466816116cd565b82525050565b6000602082019050818103600083015261148681846112eb565b905092915050565b600060608201905081810360008301526114a881866112eb565b90506114b7602083018561145d565b6114c4604083018461145d565b949350505050565b600060408201905081810360008301526114e68185611324565b90506114f560208301846112dc565b9392505050565b600060408201905081810360008301526115168185611324565b9050611525602083018461145d565b9392505050565b600060208201905081810360008301526115458161135d565b9050919050565b600060208201905081810360008301526115658161139d565b9050919050565b60006020820190508181036000830152611585816113dd565b9050919050565b600060208201905081810360008301526115a58161141d565b9050919050565b60006020820190506115c1600083018461145d565b92915050565b6000604051905081810181811067ffffffffffffffff821117156115ea57600080fd5b8060405250919050565b600067ffffffffffffffff82111561160b57600080fd5b602082029050602081019050919050565b600067ffffffffffffffff82111561163357600080fd5b601f19601f8301169050602081019050919050565b600067ffffffffffffffff82111561165f57600080fd5b601f19601f8301169050602081019050919050565b600081519050919050565b600081519050919050565b600082825260208201905092915050565b60006116a6826116ad565b9050919050565b600073ffffffffffffffffffffffffffffffffffffffff82169050919050565b6000819050919050565b82818337600083830152505050565b60005b838110156117045780820151818401526020810190506116e9565b83811115611713576000848401525b50505050565b6000601f19601f8301169050919050565b6117338161169b565b811461173e57600080fd5b50565b61174a816116cd565b811461175557600080fd5b5056fea365627a7a72315820643e6ff9ed7f671e03324bf34dcb3e26ed1e8dac6ff46d00fe84660f95dc733a6c6578706572696d656e74616cf564736f6c63430005100040",
  "source": "pragma solidity ^0.5.16;\npragma experimental ABIEncoderV2;\n\ncontract School {\n\n    struct Teacher {\n        string name;\n        uint256 id;\n    }\n\n    struct Student {\n        string name;\n        string password;\n        uint256 id;\n    }\n\n    struct Class {\n        string name;\n        Teacher[] teachers;\n        Student[] students;\n    }\n\n    struct SchoolData {\n        string name;\n        address principal;\n        mapping(uint256 => Class) classes;\n    }\n\n    struct Election {\n        string name;\n        string[] options;\n        uint voteCount;\n    }\n\n    // Election[] public elections;\n    mapping(uint => Election) public elections;\n\n    mapping(address => SchoolData) public schools;  // Mapping to store school data (Principal is owner)\n\n    function createSchool(string memory _name) public {\n        require(schools[msg.sender].principal == address(0), \"School already exists\");\n        // Check if school already exists\n        schools[msg.sender].name = _name;\n        // Set the school's name\n        schools[msg.sender].principal = msg.sender;\n        // Set the caller's address as the principal\n    }\n\n    function createClass(uint256 _classId, string memory _name) public {\n        SchoolData storage school = schools[msg.sender];\n        require(school.principal != address(0), \"School does not exist\");\n        // Check if the school exists\n        require(school.classes[_classId].teachers.length == 0, \"Class already exists\");\n        // Check if class already exists\n        school.classes[_classId].name = _name;\n        // Set the class name\n    }\n\n    function addTeacherToClass(uint256 _classId, string memory _teacherName, uint256 _teacherId) public {\n        SchoolData storage school = schools[msg.sender];\n        require(school.principal != address(0), \"School does not exist\");\n        // Check if the school exists\n        require(school.classes[_classId].teachers.length > 0, \"Class does not exist\");\n        // Check if class exists\n        school.classes[_classId].teachers.push(Teacher(_teacherName, _teacherId));\n        // Add teacher to the class\n    }\n\n    function addStudentToClass(uint256 _classId, string memory _studentName, uint256 _studentId, string memory _password) public {\n        SchoolData storage school = schools[msg.sender];\n        require(school.principal != address(0), \"School does not exist\");\n        // Check if the school exists\n        require(school.classes[_classId].teachers.length > 0, \"Class does not exist\");\n        // Check if class exists\n        school.classes[_classId].students.push(Student(_studentName, _password, _studentId));\n        // Add student to the class\n    }\n\n    function getSchoolName() public view returns (string memory) {\n        return schools[msg.sender].name;\n        // Get the name of the school\n    }\n\n    function getClassDetails(uint256 _classId) public view returns (string memory, uint256, uint256) {\n        SchoolData storage school = schools[msg.sender];\n        Class storage class = school.classes[_classId];\n        return (class.name, class.teachers.length, class.students.length);\n        // Get the class details (name, number of teachers, number of students)\n    }\n\n    function createElection(string memory electionName, string[] memory electionOptions) public {\n        elections[1] = Election(electionName, electionOptions, 0);\n    }\n\n    function vote(uint electionID) public {\n        Election storage election = elections[1];\n        election.voteCount += 1;\n    }\n\n\n    function getVotes(uint electionID) public view returns (uint) {\n        Election storage election = elections[1];\n        return election.voteCount;\n    }\n\n}",
  "sourcePath": "/Users/lukasscholz/repositorys/decentralizeddemocraticrepublic/contracts/Schools.sol",
  "compiler": {
    "name": "solc",
    "version": "0.5.16+commit.9c3226ce.Emscripten.clang"
  },
  "schemaVersion": "3.4.13",
  "updatedAt": "2023-06-14T16:57:13.040Z",
  "devdoc": {
    "methods": {}
  },
  "userdoc": {
    "methods": {}
  }
}